{"project/contracts/Project4Paymaster.sol":{"Project4Paymaster":{"abi":[{"inputs":[{"internalType":"address","name":"entryPoint_","type":"address"},{"internalType":"address","name":"usdc_","type":"address"},{"internalType":"address","name":"verifier_","type":"address"},{"internalType":"address","name":"treasury_","type":"address"}],"stateMutability":"nonpayable","type":"constructor"},{"inputs":[],"name":"InvalidPaymasterData","type":"error"},{"inputs":[],"name":"InvalidSignature","type":"error"},{"inputs":[{"internalType":"address","name":"caller","type":"address"}],"name":"NotEntryPoint","type":"error"},{"inputs":[],"name":"NotOwner","type":"error"},{"inputs":[],"name":"Paused","type":"error"},{"inputs":[{"internalType":"address","name":"target","type":"address"}],"name":"TargetNotAllowed","type":"error"},{"inputs":[],"name":"UnsupportedCallPattern","type":"error"},{"inputs":[],"name":"UsdcTransferFromFailed","type":"error"},{"inputs":[],"name":"ZeroAddress","type":"error"},{"anonymous":false,"inputs":[{"indexed":false,"internalType":"bool","name":"allowAll","type":"bool"}],"name":"AllowAllTargetsUpdated","type":"event"},{"anonymous":false,"inputs":[{"indexed":true,"internalType":"address","name":"sender","type":"address"},{"indexed":false,"internalType":"uint256","name":"gasUsed","type":"uint256"},{"indexed":false,"internalType":"uint256","name":"limit","type":"uint256"}],"name":"CircuitBreakerTriggered","type":"event"},{"anonymous":false,"inputs":[{"indexed":true,"internalType":"address","name":"sender","type":"address"},{"indexed":false,"internalType":"uint256","name":"chargedUsdcE6","type":"uint256"},{"indexed":false,"internalType":"uint256","name":"chargedWei","type":"uint256"}],"name":"GasCharged","type":"event"},{"anonymous":false,"inputs":[{"indexed":true,"internalType":"address","name":"sender","type":"address"},{"indexed":false,"internalType":"uint256","name":"estimatedGas","type":"uint256"},{"indexed":false,"internalType":"uint256","name":"actualGas","type":"uint256"},{"indexed":false,"internalType":"uint256","name":"variance","type":"uint256"}],"name":"GasEstimationAlert","type":"event"},{"anonymous":false,"inputs":[{"indexed":true,"internalType":"address","name":"sender","type":"address"},{"indexed":false,"internalType":"uint256","name":"periodGasUsed","type":"uint256"},{"indexed":false,"internalType":"uint256","name":"totalGasUsed","type":"uint256"}],"name":"GasUsageTracked","type":"event"},{"anonymous":false,"inputs":[{"indexed":true,"internalType":"address","name":"sender","type":"address"},{"indexed":false,"internalType":"uint256","name":"requestedGas","type":"uint256"},{"indexed":false,"internalType":"uint256","name":"maxAllowed","type":"uint256"}],"name":"MaxGasLimitExceeded","type":"event"},{"anonymous":false,"inputs":[{"indexed":true,"internalType":"address","name":"previousOwner","type":"address"},{"indexed":true,"internalType":"address","name":"newOwner","type":"address"}],"name":"OwnershipTransferred","type":"event"},{"anonymous":false,"inputs":[{"indexed":false,"internalType":"bool","name":"paused","type":"bool"}],"name":"PausedUpdated","type":"event"},{"anonymous":false,"inputs":[{"indexed":false,"internalType":"uint256","name":"oldLimit","type":"uint256"},{"indexed":false,"internalType":"uint256","name":"newLimit","type":"uint256"}],"name":"RateLimitUpdated","type":"event"},{"anonymous":false,"inputs":[{"indexed":true,"internalType":"address","name":"target","type":"address"},{"indexed":false,"internalType":"bool","name":"allowed","type":"bool"}],"name":"TargetAllowedUpdated","type":"event"},{"anonymous":false,"inputs":[{"indexed":true,"internalType":"address","name":"oldTreasury","type":"address"},{"indexed":true,"internalType":"address","name":"newTreasury","type":"address"}],"name":"TreasuryUpdated","type":"event"},{"anonymous":false,"inputs":[{"indexed":true,"internalType":"address","name":"oldVerifier","type":"address"},{"indexed":true,"internalType":"address","name":"newVerifier","type":"address"}],"name":"VerifierUpdated","type":"event"},{"inputs":[{"internalType":"uint32","name":"unstakeDelaySec","type":"uint32"}],"name":"addStake","outputs":[],"stateMutability":"payable","type":"function"},{"inputs":[],"name":"allowAllTargets","outputs":[{"internalType":"bool","name":"","type":"bool"}],"stateMutability":"view","type":"function"},{"inputs":[],"name":"circuitBreakerGasThreshold","outputs":[{"internalType":"uint256","name":"","type":"uint256"}],"stateMutability":"view","type":"function"},{"inputs":[],"name":"deposit","outputs":[],"stateMutability":"payable","type":"function"},{"inputs":[],"name":"entryPoint","outputs":[{"internalType":"contract IEntryPointLike","name":"","type":"address"}],"stateMutability":"view","type":"function"},{"inputs":[],"name":"gasEstimationVarianceThreshold","outputs":[{"internalType":"uint256","name":"","type":"uint256"}],"stateMutability":"view","type":"function"},{"inputs":[],"name":"getGlobalGasStats","outputs":[{"internalType":"uint256","name":"totalOps","type":"uint256"},{"internalType":"uint256","name":"periodGasUsed","type":"uint256"},{"internalType":"uint256","name":"lastReset","type":"uint256"}],"stateMutability":"view","type":"function"},{"inputs":[{"internalType":"address","name":"sender","type":"address"}],"name":"getSenderGasStats","outputs":[{"internalType":"uint256","name":"totalGas","type":"uint256"},{"internalType":"uint256","name":"operationCount","type":"uint256"},{"internalType":"uint256","name":"averageGas","type":"uint256"}],"stateMutability":"view","type":"function"},{"inputs":[],"name":"lastResetTimestamp","outputs":[{"internalType":"uint256","name":"","type":"uint256"}],"stateMutability":"view","type":"function"},{"inputs":[],"name":"maxGasPerUserOp","outputs":[{"internalType":"uint256","name":"","type":"uint256"}],"stateMutability":"view","type":"function"},{"inputs":[],"name":"owner","outputs":[{"internalType":"address","name":"","type":"address"}],"stateMutability":"view","type":"function"},{"inputs":[],"name":"paused","outputs":[{"internalType":"bool","name":"","type":"bool"}],"stateMutability":"view","type":"function"},{"inputs":[{"internalType":"enum PostOpMode","name":"mode","type":"uint8"},{"internalType":"bytes","name":"context","type":"bytes"},{"internalType":"uint256","name":"actualGasCost","type":"uint256"},{"internalType":"uint256","name":"actualUserOpFee","type":"uint256"}],"name":"postOp","outputs":[],"stateMutability":"nonpayable","type":"function"},{"inputs":[],"name":"postOpOverheadGas","outputs":[{"internalType":"uint256","name":"","type":"uint256"}],"stateMutability":"view","type":"function"},{"inputs":[],"name":"rateLimitMaxGasPerPeriod","outputs":[{"internalType":"uint256","name":"","type":"uint256"}],"stateMutability":"view","type":"function"},{"inputs":[],"name":"rateLimitPeriodSeconds","outputs":[{"internalType":"uint256","name":"","type":"uint256"}],"stateMutability":"view","type":"function"},{"inputs":[],"name":"resetGasUsage","outputs":[],"stateMutability":"nonpayable","type":"function"},{"inputs":[{"internalType":"address","name":"","type":"address"}],"name":"senderGasUsedThisPeriod","outputs":[{"internalType":"uint256","name":"","type":"uint256"}],"stateMutability":"view","type":"function"},{"inputs":[{"internalType":"address","name":"","type":"address"}],"name":"senderLastActivityTimestamp","outputs":[{"internalType":"uint256","name":"","type":"uint256"}],"stateMutability":"view","type":"function"},{"inputs":[{"internalType":"address","name":"","type":"address"}],"name":"senderOperationCount","outputs":[{"internalType":"uint256","name":"","type":"uint256"}],"stateMutability":"view","type":"function"},{"inputs":[{"internalType":"address","name":"","type":"address"}],"name":"senderTotalGasUsed","outputs":[{"internalType":"uint256","name":"","type":"uint256"}],"stateMutability":"view","type":"function"},{"inputs":[{"internalType":"bool","name":"allowAll","type":"bool"}],"name":"setAllowAllTargets","outputs":[],"stateMutability":"nonpayable","type":"function"},{"inputs":[{"internalType":"uint256","name":"threshold","type":"uint256"}],"name":"setCircuitBreakerThreshold","outputs":[],"stateMutability":"nonpayable","type":"function"},{"inputs":[{"internalType":"uint256","name":"thresholdBps","type":"uint256"}],"name":"setGasEstimationVarianceThreshold","outputs":[],"stateMutability":"nonpayable","type":"function"},{"inputs":[{"internalType":"uint256","name":"maxGas","type":"uint256"}],"name":"setMaxGasPerUserOp","outputs":[],"stateMutability":"nonpayable","type":"function"},{"inputs":[{"internalType":"bool","name":"_paused","type":"bool"}],"name":"setPaused","outputs":[],"stateMutability":"nonpayable","type":"function"},{"inputs":[{"internalType":"uint256","name":"newOverheadGas","type":"uint256"}],"name":"setPostOpOverheadGas","outputs":[],"stateMutability":"nonpayable","type":"function"},{"inputs":[{"internalType":"uint256","name":"periodSeconds","type":"uint256"},{"internalType":"uint256","name":"maxGasPerPeriod","type":"uint256"}],"name":"setRateLimit","outputs":[],"stateMutability":"nonpayable","type":"function"},{"inputs":[{"internalType":"address","name":"target","type":"address"},{"internalType":"bool","name":"allowed","type":"bool"}],"name":"setTargetAllowed","outputs":[],"stateMutability":"nonpayable","type":"function"},{"inputs":[{"internalType":"address","name":"newTreasury","type":"address"}],"name":"setTreasury","outputs":[],"stateMutability":"nonpayable","type":"function"},{"inputs":[{"internalType":"address","name":"newVerifier","type":"address"}],"name":"setVerifier","outputs":[],"stateMutability":"nonpayable","type":"function"},{"inputs":[{"internalType":"address","name":"","type":"address"}],"name":"targetAllowed","outputs":[{"internalType":"bool","name":"","type":"bool"}],"stateMutability":"view","type":"function"},{"inputs":[],"name":"totalGasUsedThisPeriod","outputs":[{"internalType":"uint256","name":"","type":"uint256"}],"stateMutability":"view","type":"function"},{"inputs":[],"name":"totalOperationsProcessed","outputs":[{"internalType":"uint256","name":"","type":"uint256"}],"stateMutability":"view","type":"function"},{"inputs":[{"internalType":"address","name":"newOwner","type":"address"}],"name":"transferOwnership","outputs":[],"stateMutability":"nonpayable","type":"function"},{"inputs":[],"name":"treasury","outputs":[{"internalType":"address","name":"","type":"address"}],"stateMutability":"view","type":"function"},{"inputs":[],"name":"usdc","outputs":[{"internalType":"contract IERC20","name":"","type":"address"}],"stateMutability":"view","type":"function"},{"inputs":[{"components":[{"internalType":"address","name":"sender","type":"address"},{"internalType":"uint256","name":"nonce","type":"uint256"},{"internalType":"bytes","name":"initCode","type":"bytes"},{"internalType":"bytes","name":"callData","type":"bytes"},{"internalType":"bytes32","name":"accountGasLimits","type":"bytes32"},{"internalType":"uint256","name":"preVerificationGas","type":"uint256"},{"internalType":"bytes32","name":"gasFees","type":"bytes32"},{"internalType":"bytes","name":"paymasterAndData","type":"bytes"},{"internalType":"bytes","name":"signature","type":"bytes"}],"internalType":"struct PackedUserOperation","name":"userOp","type":"tuple"},{"internalType":"bytes32","name":"","type":"bytes32"},{"internalType":"uint256","name":"maxCost","type":"uint256"}],"name":"validatePaymasterUserOp","outputs":[{"internalType":"bytes","name":"context","type":"bytes"},{"internalType":"uint256","name":"validationData","type":"uint256"}],"stateMutability":"nonpayable","type":"function"},{"inputs":[],"name":"verifier","outputs":[{"internalType":"address","name":"","type":"address"}],"stateMutability":"view","type":"function"},{"inputs":[{"internalType":"address payable","name":"to","type":"address"}],"name":"withdrawStake","outputs":[],"stateMutability":"nonpayable","type":"function"},{"inputs":[{"internalType":"address payable","name":"to","type":"address"},{"internalType":"uint256","name":"amount","type":"uint256"}],"name":"withdrawTo","outputs":[],"stateMutability":"nonpayable","type":"function"}],"evm":{"bytecode":{"linkReferences":{},"object":"60c0346101de57601f611ad638819003918201601f19168301916001600160401b038311848410176101e2578084926080946040528339810103126101de57610047816101f6565b90610054602082016101f6565b9061006d6060610066604084016101f6565b92016101f6565b5f80546001600160a01b03191633908117825560405195929492917f8be0079c531659141344cd1fd0a4f28419497f9722a3daafe3b4186f6b6457e08180a36001600160a01b0316801580156101cd575b80156101bc575b80156101ab575b61019c5760a0526001600160a01b03908116608052600180549282166001600160a01b0319938416178155600280549490921693909216929092179091556188b86003556004805460ff19169091179055610e10600655633b9aca006007556402540be40060085542600c556302faf080600d55611388600e556118cb908161020b823960805181818161067a015281816113660152611819015260a0518181816102d5015281816104b00152818161077a01528181610e0b01528181610eee01528181610fff015261128e0152f35b63d92e233d60e01b5f5260045ffd5b506001600160a01b038416156100cc565b506001600160a01b038316156100c5565b506001600160a01b038216156100be565b5f80fd5b634e487b7160e01b5f52604160045260245ffd5b51906001600160a01b03821682036101de5756fe60806040526004361015610011575f80fd5b5f3560e01c80630396cb60146102a457806316c38b3c1461029f578063186509891461029a5780631c6aab1514610295578063205c2878146102905780632726a2871461028b5780632b7ac3f3146102865780632f027fac146102815780633a3d56fa1461027c5780633e413bee1461027757806340149439146102725780634a433ab21461026d5780634a92dd651461026857806352b7512c146102635780635437988d1461025e5780635c975abb1461025957806361d027b314610254578063659e95421461024f57806369f4a9921461024a57806370817b0e1461024557806379746f9d146102405780637c627b211461023b5780638da5cb5b146102365780638e2a128c1461023157806391222f4b1461022c57806399f6f5bb14610227578063a0febae514610222578063abe2fde41461021d578063b0d691fe14610218578063b343a0df14610213578063b53f52271461020e578063c23a5cea14610209578063c61b4b9614610204578063c900cd30146101ff578063ceda3487146101fa578063d0e30db0146101f5578063de992278146101f0578063e4716967146101eb578063ef0a5416146101e6578063f0f44260146101e15763f2fde38b146101dc575f80fd5b611144565b6110c5565b6110a8565b61107d565b61105b565b610fe0565b610fa5565b610f74565b610f57565b610ebd565b610e57565b610e3a565b610df6565b610db6565b610d71565b610d46565b610d29565b610d0c565b610ce5565b610c75565b610c58565b610c2d565b610bf2565b610bd5565b610bad565b610b88565b610b09565b610741565b6106f1565b6106d4565b6106a9565b610665565b6105bc565b610581565b610559565b61051e565b61047a565b61043e565b6103d2565b610360565b5f60203660031901126103435760043563ffffffff8116809103610343575f546001600160a01b03163303610347577f00000000000000000000000000000000000000000000000000000000000000006001600160a01b031690813b15610343575f90602460405180948193621cb65b60e51b8352600483015234905af1801561033e57610330575080f35b61033c91505f906111cf565b005b6111f6565b5f80fd5b6330cd747160e01b5f5260045ffd5b8015150361034357565b346103435760203660031901126103435760043561037d81610356565b5f546001600160a01b031633036103475760207f31311016d7204faff81880133e3db244ae8a8b9ce15e83e2432258226d15f94291151560045461ff008260081b169061ff00191617600455604051908152a1005b34610343576020366003190112610343576004356103ef81610356565b5f546001600160a01b031633036103475760207f49e16b4e00d591ed4925dea4fdd69f9e112aabb2baea37669dcc78600b2b7b0891151560ff196004541660ff821617600455604051908152a1005b34610343576020366003190112610343575f54600435906001600160a01b0316330361034757600855005b6001600160a01b0381160361034357565b34610343575f60403660031901126103435760043561049881610469565b5f5460243591906001600160a01b03163303610347577f00000000000000000000000000000000000000000000000000000000000000006001600160a01b031691823b156103435760405163040b850f60e31b81526001600160a01b0390921660048301526024820152905f908290604490829084905af1801561033e57610330575080f35b346103435760203660031901126103435760043561053b81610469565b60018060a01b03165f52600f602052602060405f2054604051908152f35b34610343575f366003190112610343576001546040516001600160a01b039091168152602090f35b346103435760203660031901126103435760043561059e81610469565b60018060a01b03165f52600a602052602060405f2054604051908152f35b34610343576040366003190112610343576004356105d981610469565b602435906105e682610356565b5f546001600160a01b03163303610347576001600160a01b03169081156106565760207fd10c23909502730c000220a119364e467e571e5d06984343f90be1562ef91c8791835f526005825261064b8160405f209060ff801983541691151516179055565b6040519015158152a2005b63d92e233d60e01b5f5260045ffd5b34610343575f366003190112610343576040517f00000000000000000000000000000000000000000000000000000000000000006001600160a01b03168152602090f35b34610343576020366003190112610343575f54600435906001600160a01b0316330361034757600355005b34610343575f366003190112610343576020600654604051908152f35b34610343575f366003190112610343576020600354604051908152f35b9291906060602080926040875280519182918260408a0152018388015e5f828288010152601f8019910116850101930152565b346103435760603660031901126103435760043567ffffffffffffffff81116103435780600401906101206003198236030112610343577f00000000000000000000000000000000000000000000000000000000000000006001600160a01b031633819003610af6576004549060ff8260081c16610ae7576107cf6107c960e4850186611201565b90611582565b909397929591948388888b888a6064850198896108046108086107fb6107f5848c611201565b9061167b565b92909460ff1690565b1590565b610a81575b50936108e2999896936108c79389979361084561083e6108d59960246108356108dd9f611234565b9a01359b611201565b3691611241565b8051602091820120604080514693810193845230918101919091526001600160a01b039c8d166060820152988c1660808a015260a089019a909a5260c088019990995290981660e086015261010085019790975261012084019690965265ffffffffffff95861661014084015290941661016082015291928290610180820190565b03601f1981018352826111cf565b5190206116cc565b611711565b6001546001600160a01b03166001600160a01b0390911603610a725761080461090e6109149284611201565b906117cc565b94856109b1575b50606094806109a8575b610960575b8460a087901b65ffffffffffff60a01b1660d086901b6001600160d01b031916175b9061095c6040519283928361070e565b0390f35b61094c9450906108c76109756109a093611234565b604080516001600160a01b039092166020830152810194909452606084019190915282906080820190565b915f8061092a565b50821515610925565b60846109d39101356fffffffffffffffffffffffffffffffff8160801c911691565b50600d548082116109e4575061091b565b90917f6d334c5133e16cdecf3a42fc5910a5870eb072b741dd1dc494b57667afcea6d791906001600160a01b0390610a1b90611234565b6040805195865260208601939093521692a260405162461bcd60e51b815260206004820152601d60248201527f476173206c696d697420657863656564656420666f7220557365724f700000006044820152606490fd5b638baa579f60e01b5f5260045ffd5b96505095505050505015610ad8576001600160a01b0381165f9081526005602052604090205460ff1615610abd5788888b888a8995895f61080d565b63e356c1d360e01b5f526001600160a01b031660045260245ffd5b6304bb0c3360e11b5f5260045ffd5b6313d0ff5960e31b5f5260045ffd5b633d40d29d60e11b5f523360045260245ffd5b3461034357602036600319011261034357600435610b2681610469565b5f546001600160a01b03163303610347576001600160a01b0316801561065657600154816001600160a01b0382167f0243549a92b2412f7a3caf7a2e56d65b8821b91345363faa5f57195384065fcc5f80a36001600160a01b03191617600155005b34610343575f36600319011261034357602060ff60045460081c166040519015158152f35b34610343575f366003190112610343576002546040516001600160a01b039091168152602090f35b34610343575f366003190112610343576020600b54604051908152f35b3461034357602036600319011261034357600435610c0f81610469565b60018060a01b03165f526010602052602060405f2054604051908152f35b34610343576020366003190112610343575f54600435906001600160a01b0316330361034757600e55005b34610343575f366003190112610343576020601154604051908152f35b346103435760803660031901126103435760043560038110156103435760243567ffffffffffffffff811161034357366023820112156103435780600401359167ffffffffffffffff83116103435736602484840101116103435761033c92604435916024606435940190611287565b34610343575f366003190112610343575f546040516001600160a01b039091168152602090f35b34610343575f366003190112610343576020600854604051908152f35b34610343575f366003190112610343576020600d54604051908152f35b34610343576020366003190112610343575f54600435906001600160a01b0316330361034757600d55005b346103435760203660031901126103435761095c610d99600435610d9481610469565b6114c2565b604080519384526020840192909252908201529081906060820190565b3461034357602036600319011261034357600435610dd381610469565b60018060a01b03165f526005602052602060ff60405f2054166040519015158152f35b34610343575f366003190112610343576040517f00000000000000000000000000000000000000000000000000000000000000006001600160a01b03168152602090f35b34610343575f366003190112610343576020600c54604051908152f35b34610343576040366003190112610343575f5460243590600435906001600160a01b031633036103475760075460408051918252602082018490527fdb321c9770a010d58b4c320a42b8c5afe7b2e10ac9de40fdf7e35a07214f25f491a1600655600755005b34610343575f602036600319011261034357600435610edb81610469565b5f546001600160a01b03163303610347577f00000000000000000000000000000000000000000000000000000000000000006001600160a01b031690813b156103435760405163611d2e7560e11b81526001600160a01b039091166004820152905f908290602490829084905af1801561033e57610330575080f35b34610343575f366003190112610343576020600754604051908152f35b34610343575f36600319011261034357601154600b54600c5460408051938452602084019290925290820152606090f35b3461034357602036600319011261034357600435610fc281610469565b60018060a01b03165f526009602052602060405f2054604051908152f35b5f5f600319360112610343575f546001600160a01b03163303610347577f00000000000000000000000000000000000000000000000000000000000000006001600160a01b0316803b15610343575f6024916040519283809263b760faf960e01b825230600483015234905af1801561033e57610330575080f35b34610343575f36600319011261034357602060ff600454166040519015158152f35b34610343575f366003190112610343575f546001600160a01b031633036103475742600c555f600b55005b34610343575f366003190112610343576020600e54604051908152f35b34610343576020366003190112610343576004356110e281610469565b5f546001600160a01b03163303610347576001600160a01b0316801561065657600254816001600160a01b0382167f4ab5be82436d353e61ca18726e984e561f5c1cc7c6d38b29d2553c790434705a5f80a36001600160a01b03191617600255005b346103435760203660031901126103435760043561116181610469565b5f546001600160a01b0381169133839003610347576001600160a01b03169182156106565782907f8be0079c531659141344cd1fd0a4f28419497f9722a3daafe3b4186f6b6457e05f80a36001600160a01b031916175f55005b634e487b7160e01b5f52604160045260245ffd5b90601f8019910116810190811067ffffffffffffffff8211176111f157604052565b6111bb565b6040513d5f823e3d90fd5b903590601e1981360301821215610343570180359067ffffffffffffffff82116103435760200191813603831361034357565b3561123e81610469565b90565b92919267ffffffffffffffff82116111f1576040519161126b601f8201601f1916602001846111cf565b829481845281830111610343578281602093845f960137010152565b92935090917f00000000000000000000000000000000000000000000000000000000000000006001600160a01b03163303610af657821515908161142d575b506112d057505050565b6112dc9181019061145d565b6001600160a01b0390921692909182151580611424575b6112fe575b50505050565b61130b6113149183611495565b620f4240900490565b9180831161141c575b508161132a575b806112f8565b6002546040516323b872dd60e01b81526001600160a01b038581166004830152909116602482015260448101839052602081806064810103815f7f00000000000000000000000000000000000000000000000000000000000000006001600160a01b03165af190811561033e575f916113ed575b50156113de576040805192835260208301919091527f724b869c372e4d7ba16b299ed75d8d16128c7323f1b26350c08af594a7a0c34491a25f8080611324565b631a3fe57160e11b5f5260045ffd5b61140f915060203d602011611415575b61140781836111cf565b8101906114ad565b5f61139e565b503d6113fd565b91505f61131d565b508015156112f3565b90506114388161143f565b155f6112c6565b6003111561144957565b634e487b7160e01b5f52602160045260245ffd5b9081606091031261034357803561147381610469565b916040602083013592013590565b634e487b7160e01b5f52601160045260245ffd5b818102929181159184041417156114a857565b611481565b90816020910312610343575161123e81610356565b6001600160a01b03165f8181526010602052604090205490919015611520575f918252600f602090815260408084205460109092529092205491908282811561150c570491929190565b634e487b7160e01b5f52601260045260245ffd5b5f915081908190565b906004116103435790600490565b909291928360041161034357831161034357600401916003190190565b359065ffffffffffff8216820361034357565b9080601f830112156103435781602061123e93359101611241565b9060d481106115fb578060341161034357810160a08282036033190112610343576115af60348301611554565b916115bc60548201611554565b9160748201359160948101359160b48201359167ffffffffffffffff8311610343576115eb9201603401611567565b909192939460418251036115fb57565b63097637e960e21b5f5260045ffd5b356001600160e01b0319811692919060048210611625575050565b6001600160e01b031960049290920360031b82901b16169150565b9160608383031261034357823561165681610469565b92602081013592604082013567ffffffffffffffff81116103435761123e9201611567565b602482106116c457816004116103435780356001600160e01b031916635b0e93fb60e11b036116c45760046116b39282019101611640565b50506001600160a01b031690600190565b50505f905f90565b60405160208101917f19457468657265756d205369676e6564204d6573736167653a0a3332000000008352603c820152603c815261170b605c826111cf565b51902090565b90602081015191606060408301519201515f1a90601b8210611798575b60ff8216601b811415908161178c575b50611784576117715f93602095604051948594859094939260ff6060936080840197845216602083015260408201520152565b838052039060015afa1561033e575f5190565b505050505f90565b601c915014155f61173e565b90601b0160ff81116114a8579061172e565b80516020909101516001600160e01b0319811692919060048210611625575050565b6004821061188f576117de8282611529565b635b0e93fb60e11b916001600160e01b0319916117fa9161160a565b160361188f57816118169261180e92611537565b810190611640565b917f00000000000000000000000000000000000000000000000000000000000000006001600160a01b0390811691161480159150611884575b61187f5763095ea7b360e01b6001600160e01b031961186d836117aa565b160361187f576030015160601c301490565b505f90565b50600481511061184f565b50505f9056fea2646970667358221220f1cbaaadbb6b2326db7413fd287a9ce6efcc6357ab1c85c2e1e915901546c02164736f6c634300081c0033","opcodes":"PUSH1 0xC0 CALLVALUE PUSH2 0x1DE JUMPI PUSH1 0x1F PUSH2 0x1AD6 CODESIZE DUP2 SWAP1 SUB SWAP2 DUP3 ADD PUSH1 0x1F NOT AND DUP4 ADD SWAP2 PUSH1 0x1 PUSH1 0x1 PUSH1 0x40 SHL SUB DUP4 GT DUP5 DUP5 LT OR PUSH2 0x1E2 JUMPI DUP1 DUP5 SWAP3 PUSH1 0x80 SWAP5 PUSH1 0x40 MSTORE DUP4 CODECOPY DUP2 ADD SUB SLT PUSH2 0x1DE JUMPI PUSH2 0x47 DUP2 PUSH2 0x1F6 JUMP JUMPDEST SWAP1 PUSH2 0x54 PUSH1 0x20 DUP3 ADD PUSH2 0x1F6 JUMP JUMPDEST SWAP1 PUSH2 0x6D PUSH1 0x60 PUSH2 0x66 PUSH1 0x40 DUP5 ADD PUSH2 0x1F6 JUMP JUMPDEST SWAP3 ADD PUSH2 0x1F6 JUMP JUMPDEST PUSH0 DUP1 SLOAD PUSH1 0x1 PUSH1 0x1 PUSH1 0xA0 SHL SUB NOT AND CALLER SWAP1 DUP2 OR DUP3 SSTORE PUSH1 0x40 MLOAD SWAP6 SWAP3 SWAP5 SWAP3 SWAP2 PUSH32 0x8BE0079C531659141344CD1FD0A4F28419497F9722A3DAAFE3B4186F6B6457E0 DUP2 DUP1 LOG3 PUSH1 0x1 PUSH1 0x1 PUSH1 0xA0 SHL SUB AND DUP1 ISZERO DUP1 ISZERO PUSH2 0x1CD JUMPI JUMPDEST DUP1 ISZERO PUSH2 0x1BC JUMPI JUMPDEST DUP1 ISZERO PUSH2 0x1AB JUMPI JUMPDEST PUSH2 0x19C JUMPI PUSH1 0xA0 MSTORE PUSH1 0x1 PUSH1 0x1 PUSH1 0xA0 SHL SUB SWAP1 DUP2 AND PUSH1 0x80 MSTORE PUSH1 0x1 DUP1 SLOAD SWAP3 DUP3 AND PUSH1 0x1 PUSH1 0x1 PUSH1 0xA0 SHL SUB NOT SWAP4 DUP5 AND OR DUP2 SSTORE PUSH1 0x2 DUP1 SLOAD SWAP5 SWAP1 SWAP3 AND SWAP4 SWAP1 SWAP3 AND SWAP3 SWAP1 SWAP3 OR SWAP1 SWAP2 SSTORE PUSH2 0x88B8 PUSH1 0x3 SSTORE PUSH1 0x4 DUP1 SLOAD PUSH1 0xFF NOT AND SWAP1 SWAP2 OR SWAP1 SSTORE PUSH2 0xE10 PUSH1 0x6 SSTORE PUSH4 0x3B9ACA00 PUSH1 0x7 SSTORE PUSH5 0x2540BE400 PUSH1 0x8 SSTORE TIMESTAMP PUSH1 0xC SSTORE PUSH4 0x2FAF080 PUSH1 0xD SSTORE PUSH2 0x1388 PUSH1 0xE SSTORE PUSH2 0x18CB SWAP1 DUP2 PUSH2 0x20B DUP3 CODECOPY PUSH1 0x80 MLOAD DUP2 DUP2 DUP2 PUSH2 0x67A ADD MSTORE DUP2 DUP2 PUSH2 0x1366 ADD MSTORE PUSH2 0x1819 ADD MSTORE PUSH1 0xA0 MLOAD DUP2 DUP2 DUP2 PUSH2 0x2D5 ADD MSTORE DUP2 DUP2 PUSH2 0x4B0 ADD MSTORE DUP2 DUP2 PUSH2 0x77A ADD MSTORE DUP2 DUP2 PUSH2 0xE0B ADD MSTORE DUP2 DUP2 PUSH2 0xEEE ADD MSTORE DUP2 DUP2 PUSH2 0xFFF ADD MSTORE PUSH2 0x128E ADD MSTORE RETURN JUMPDEST PUSH4 0xD92E233D PUSH1 0xE0 SHL PUSH0 MSTORE PUSH1 0x4 PUSH0 REVERT JUMPDEST POP PUSH1 0x1 PUSH1 0x1 PUSH1 0xA0 SHL SUB DUP5 AND ISZERO PUSH2 0xCC JUMP JUMPDEST POP PUSH1 0x1 PUSH1 0x1 PUSH1 0xA0 SHL SUB DUP4 AND ISZERO PUSH2 0xC5 JUMP JUMPDEST POP PUSH1 0x1 PUSH1 0x1 PUSH1 0xA0 SHL SUB DUP3 AND ISZERO PUSH2 0xBE JUMP JUMPDEST PUSH0 DUP1 REVERT JUMPDEST PUSH4 0x4E487B71 PUSH1 0xE0 SHL PUSH0 MSTORE PUSH1 0x41 PUSH1 0x4 MSTORE PUSH1 0x24 PUSH0 REVERT JUMPDEST MLOAD SWAP1 PUSH1 0x1 PUSH1 0x1 PUSH1 0xA0 SHL SUB DUP3 AND DUP3 SUB PUSH2 0x1DE JUMPI JUMP INVALID PUSH1 0x80 PUSH1 0x40 MSTORE PUSH1 0x4 CALLDATASIZE LT ISZERO PUSH2 0x11 JUMPI PUSH0 DUP1 REVERT JUMPDEST PUSH0 CALLDATALOAD PUSH1 0xE0 SHR DUP1 PUSH4 0x396CB60 EQ PUSH2 0x2A4 JUMPI DUP1 PUSH4 0x16C38B3C EQ PUSH2 0x29F JUMPI DUP1 PUSH4 0x18650989 EQ PUSH2 0x29A JUMPI DUP1 PUSH4 0x1C6AAB15 EQ PUSH2 0x295 JUMPI DUP1 PUSH4 0x205C2878 EQ PUSH2 0x290 JUMPI DUP1 PUSH4 0x2726A287 EQ PUSH2 0x28B JUMPI DUP1 PUSH4 0x2B7AC3F3 EQ PUSH2 0x286 JUMPI DUP1 PUSH4 0x2F027FAC EQ PUSH2 0x281 JUMPI DUP1 PUSH4 0x3A3D56FA EQ PUSH2 0x27C JUMPI DUP1 PUSH4 0x3E413BEE EQ PUSH2 0x277 JUMPI DUP1 PUSH4 0x40149439 EQ PUSH2 0x272 JUMPI DUP1 PUSH4 0x4A433AB2 EQ PUSH2 0x26D JUMPI DUP1 PUSH4 0x4A92DD65 EQ PUSH2 0x268 JUMPI DUP1 PUSH4 0x52B7512C EQ PUSH2 0x263 JUMPI DUP1 PUSH4 0x5437988D EQ PUSH2 0x25E JUMPI DUP1 PUSH4 0x5C975ABB EQ PUSH2 0x259 JUMPI DUP1 PUSH4 0x61D027B3 EQ PUSH2 0x254 JUMPI DUP1 PUSH4 0x659E9542 EQ PUSH2 0x24F JUMPI DUP1 PUSH4 0x69F4A992 EQ PUSH2 0x24A JUMPI DUP1 PUSH4 0x70817B0E EQ PUSH2 0x245 JUMPI DUP1 PUSH4 0x79746F9D EQ PUSH2 0x240 JUMPI DUP1 PUSH4 0x7C627B21 EQ PUSH2 0x23B JUMPI DUP1 PUSH4 0x8DA5CB5B EQ PUSH2 0x236 JUMPI DUP1 PUSH4 0x8E2A128C EQ PUSH2 0x231 JUMPI DUP1 PUSH4 0x91222F4B EQ PUSH2 0x22C JUMPI DUP1 PUSH4 0x99F6F5BB EQ PUSH2 0x227 JUMPI DUP1 PUSH4 0xA0FEBAE5 EQ PUSH2 0x222 JUMPI DUP1 PUSH4 0xABE2FDE4 EQ PUSH2 0x21D JUMPI DUP1 PUSH4 0xB0D691FE EQ PUSH2 0x218 JUMPI DUP1 PUSH4 0xB343A0DF EQ PUSH2 0x213 JUMPI DUP1 PUSH4 0xB53F5227 EQ PUSH2 0x20E JUMPI DUP1 PUSH4 0xC23A5CEA EQ PUSH2 0x209 JUMPI DUP1 PUSH4 0xC61B4B96 EQ PUSH2 0x204 JUMPI DUP1 PUSH4 0xC900CD30 EQ PUSH2 0x1FF JUMPI DUP1 PUSH4 0xCEDA3487 EQ PUSH2 0x1FA JUMPI DUP1 PUSH4 0xD0E30DB0 EQ PUSH2 0x1F5 JUMPI DUP1 PUSH4 0xDE992278 EQ PUSH2 0x1F0 JUMPI DUP1 PUSH4 0xE4716967 EQ PUSH2 0x1EB JUMPI DUP1 PUSH4 0xEF0A5416 EQ PUSH2 0x1E6 JUMPI DUP1 PUSH4 0xF0F44260 EQ PUSH2 0x1E1 JUMPI PUSH4 0xF2FDE38B EQ PUSH2 0x1DC JUMPI PUSH0 DUP1 REVERT JUMPDEST PUSH2 0x1144 JUMP JUMPDEST PUSH2 0x10C5 JUMP JUMPDEST PUSH2 0x10A8 JUMP JUMPDEST PUSH2 0x107D JUMP JUMPDEST PUSH2 0x105B JUMP JUMPDEST PUSH2 0xFE0 JUMP JUMPDEST PUSH2 0xFA5 JUMP JUMPDEST PUSH2 0xF74 JUMP JUMPDEST PUSH2 0xF57 JUMP JUMPDEST PUSH2 0xEBD JUMP JUMPDEST PUSH2 0xE57 JUMP JUMPDEST PUSH2 0xE3A JUMP JUMPDEST PUSH2 0xDF6 JUMP JUMPDEST PUSH2 0xDB6 JUMP JUMPDEST PUSH2 0xD71 JUMP JUMPDEST PUSH2 0xD46 JUMP JUMPDEST PUSH2 0xD29 JUMP JUMPDEST PUSH2 0xD0C JUMP JUMPDEST PUSH2 0xCE5 JUMP JUMPDEST PUSH2 0xC75 JUMP JUMPDEST PUSH2 0xC58 JUMP JUMPDEST PUSH2 0xC2D JUMP JUMPDEST PUSH2 0xBF2 JUMP JUMPDEST PUSH2 0xBD5 JUMP JUMPDEST PUSH2 0xBAD JUMP JUMPDEST PUSH2 0xB88 JUMP JUMPDEST PUSH2 0xB09 JUMP JUMPDEST PUSH2 0x741 JUMP JUMPDEST PUSH2 0x6F1 JUMP JUMPDEST PUSH2 0x6D4 JUMP JUMPDEST PUSH2 0x6A9 JUMP JUMPDEST PUSH2 0x665 JUMP JUMPDEST PUSH2 0x5BC JUMP JUMPDEST PUSH2 0x581 JUMP JUMPDEST PUSH2 0x559 JUMP JUMPDEST PUSH2 0x51E JUMP JUMPDEST PUSH2 0x47A JUMP JUMPDEST PUSH2 0x43E JUMP JUMPDEST PUSH2 0x3D2 JUMP JUMPDEST PUSH2 0x360 JUMP JUMPDEST PUSH0 PUSH1 0x20 CALLDATASIZE PUSH1 0x3 NOT ADD SLT PUSH2 0x343 JUMPI PUSH1 0x4 CALLDATALOAD PUSH4 0xFFFFFFFF DUP2 AND DUP1 SWAP2 SUB PUSH2 0x343 JUMPI PUSH0 SLOAD PUSH1 0x1 PUSH1 0x1 PUSH1 0xA0 SHL SUB AND CALLER SUB PUSH2 0x347 JUMPI PUSH32 0x0 PUSH1 0x1 PUSH1 0x1 PUSH1 0xA0 SHL SUB AND SWAP1 DUP2 EXTCODESIZE ISZERO PUSH2 0x343 JUMPI PUSH0 SWAP1 PUSH1 0x24 PUSH1 0x40 MLOAD DUP1 SWAP5 DUP2 SWAP4 PUSH3 0x1CB65B PUSH1 0xE5 SHL DUP4 MSTORE PUSH1 0x4 DUP4 ADD MSTORE CALLVALUE SWAP1 GAS CALL DUP1 ISZERO PUSH2 0x33E JUMPI PUSH2 0x330 JUMPI POP DUP1 RETURN JUMPDEST PUSH2 0x33C SWAP2 POP PUSH0 SWAP1 PUSH2 0x11CF JUMP JUMPDEST STOP JUMPDEST PUSH2 0x11F6 JUMP JUMPDEST PUSH0 DUP1 REVERT JUMPDEST PUSH4 0x30CD7471 PUSH1 0xE0 SHL PUSH0 MSTORE PUSH1 0x4 PUSH0 REVERT JUMPDEST DUP1 ISZERO ISZERO SUB PUSH2 0x343 JUMPI JUMP JUMPDEST CALLVALUE PUSH2 0x343 JUMPI PUSH1 0x20 CALLDATASIZE PUSH1 0x3 NOT ADD SLT PUSH2 0x343 JUMPI PUSH1 0x4 CALLDATALOAD PUSH2 0x37D DUP2 PUSH2 0x356 JUMP JUMPDEST PUSH0 SLOAD PUSH1 0x1 PUSH1 0x1 PUSH1 0xA0 SHL SUB AND CALLER SUB PUSH2 0x347 JUMPI PUSH1 0x20 PUSH32 0x31311016D7204FAFF81880133E3DB244AE8A8B9CE15E83E2432258226D15F942 SWAP2 ISZERO ISZERO PUSH1 0x4 SLOAD PUSH2 0xFF00 DUP3 PUSH1 0x8 SHL AND SWAP1 PUSH2 0xFF00 NOT AND OR PUSH1 0x4 SSTORE PUSH1 0x40 MLOAD SWAP1 DUP2 MSTORE LOG1 STOP JUMPDEST CALLVALUE PUSH2 0x343 JUMPI PUSH1 0x20 CALLDATASIZE PUSH1 0x3 NOT ADD SLT PUSH2 0x343 JUMPI PUSH1 0x4 CALLDATALOAD PUSH2 0x3EF DUP2 PUSH2 0x356 JUMP JUMPDEST PUSH0 SLOAD PUSH1 0x1 PUSH1 0x1 PUSH1 0xA0 SHL SUB AND CALLER SUB PUSH2 0x347 JUMPI PUSH1 0x20 PUSH32 0x49E16B4E00D591ED4925DEA4FDD69F9E112AABB2BAEA37669DCC78600B2B7B08 SWAP2 ISZERO ISZERO PUSH1 0xFF NOT PUSH1 0x4 SLOAD AND PUSH1 0xFF DUP3 AND OR PUSH1 0x4 SSTORE PUSH1 0x40 MLOAD SWAP1 DUP2 MSTORE LOG1 STOP JUMPDEST CALLVALUE PUSH2 0x343 JUMPI PUSH1 0x20 CALLDATASIZE PUSH1 0x3 NOT ADD SLT PUSH2 0x343 JUMPI PUSH0 SLOAD PUSH1 0x4 CALLDATALOAD SWAP1 PUSH1 0x1 PUSH1 0x1 PUSH1 0xA0 SHL SUB AND CALLER SUB PUSH2 0x347 JUMPI PUSH1 0x8 SSTORE STOP JUMPDEST PUSH1 0x1 PUSH1 0x1 PUSH1 0xA0 SHL SUB DUP2 AND SUB PUSH2 0x343 JUMPI JUMP JUMPDEST CALLVALUE PUSH2 0x343 JUMPI PUSH0 PUSH1 0x40 CALLDATASIZE PUSH1 0x3 NOT ADD SLT PUSH2 0x343 JUMPI PUSH1 0x4 CALLDATALOAD PUSH2 0x498 DUP2 PUSH2 0x469 JUMP JUMPDEST PUSH0 SLOAD PUSH1 0x24 CALLDATALOAD SWAP2 SWAP1 PUSH1 0x1 PUSH1 0x1 PUSH1 0xA0 SHL SUB AND CALLER SUB PUSH2 0x347 JUMPI PUSH32 0x0 PUSH1 0x1 PUSH1 0x1 PUSH1 0xA0 SHL SUB AND SWAP2 DUP3 EXTCODESIZE ISZERO PUSH2 0x343 JUMPI PUSH1 0x40 MLOAD PUSH4 0x40B850F PUSH1 0xE3 SHL DUP2 MSTORE PUSH1 0x1 PUSH1 0x1 PUSH1 0xA0 SHL SUB SWAP1 SWAP3 AND PUSH1 0x4 DUP4 ADD MSTORE PUSH1 0x24 DUP3 ADD MSTORE SWAP1 PUSH0 SWAP1 DUP3 SWAP1 PUSH1 0x44 SWAP1 DUP3 SWAP1 DUP5 SWAP1 GAS CALL DUP1 ISZERO PUSH2 0x33E JUMPI PUSH2 0x330 JUMPI POP DUP1 RETURN JUMPDEST CALLVALUE PUSH2 0x343 JUMPI PUSH1 0x20 CALLDATASIZE PUSH1 0x3 NOT ADD SLT PUSH2 0x343 JUMPI PUSH1 0x4 CALLDATALOAD PUSH2 0x53B DUP2 PUSH2 0x469 JUMP JUMPDEST PUSH1 0x1 DUP1 PUSH1 0xA0 SHL SUB AND PUSH0 MSTORE PUSH1 0xF PUSH1 0x20 MSTORE PUSH1 0x20 PUSH1 0x40 PUSH0 KECCAK256 SLOAD PUSH1 0x40 MLOAD SWAP1 DUP2 MSTORE RETURN JUMPDEST CALLVALUE PUSH2 0x343 JUMPI PUSH0 CALLDATASIZE PUSH1 0x3 NOT ADD SLT PUSH2 0x343 JUMPI PUSH1 0x1 SLOAD PUSH1 0x40 MLOAD PUSH1 0x1 PUSH1 0x1 PUSH1 0xA0 SHL SUB SWAP1 SWAP2 AND DUP2 MSTORE PUSH1 0x20 SWAP1 RETURN JUMPDEST CALLVALUE PUSH2 0x343 JUMPI PUSH1 0x20 CALLDATASIZE PUSH1 0x3 NOT ADD SLT PUSH2 0x343 JUMPI PUSH1 0x4 CALLDATALOAD PUSH2 0x59E DUP2 PUSH2 0x469 JUMP JUMPDEST PUSH1 0x1 DUP1 PUSH1 0xA0 SHL SUB AND PUSH0 MSTORE PUSH1 0xA PUSH1 0x20 MSTORE PUSH1 0x20 PUSH1 0x40 PUSH0 KECCAK256 SLOAD PUSH1 0x40 MLOAD SWAP1 DUP2 MSTORE RETURN JUMPDEST CALLVALUE PUSH2 0x343 JUMPI PUSH1 0x40 CALLDATASIZE PUSH1 0x3 NOT ADD SLT PUSH2 0x343 JUMPI PUSH1 0x4 CALLDATALOAD PUSH2 0x5D9 DUP2 PUSH2 0x469 JUMP JUMPDEST PUSH1 0x24 CALLDATALOAD SWAP1 PUSH2 0x5E6 DUP3 PUSH2 0x356 JUMP JUMPDEST PUSH0 SLOAD PUSH1 0x1 PUSH1 0x1 PUSH1 0xA0 SHL SUB AND CALLER SUB PUSH2 0x347 JUMPI PUSH1 0x1 PUSH1 0x1 PUSH1 0xA0 SHL SUB AND SWAP1 DUP2 ISZERO PUSH2 0x656 JUMPI PUSH1 0x20 PUSH32 0xD10C23909502730C000220A119364E467E571E5D06984343F90BE1562EF91C87 SWAP2 DUP4 PUSH0 MSTORE PUSH1 0x5 DUP3 MSTORE PUSH2 0x64B DUP2 PUSH1 0x40 PUSH0 KECCAK256 SWAP1 PUSH1 0xFF DUP1 NOT DUP4 SLOAD AND SWAP2 ISZERO ISZERO AND OR SWAP1 SSTORE JUMP JUMPDEST PUSH1 0x40 MLOAD SWAP1 ISZERO ISZERO DUP2 MSTORE LOG2 STOP JUMPDEST PUSH4 0xD92E233D PUSH1 0xE0 SHL PUSH0 MSTORE PUSH1 0x4 PUSH0 REVERT JUMPDEST CALLVALUE PUSH2 0x343 JUMPI PUSH0 CALLDATASIZE PUSH1 0x3 NOT ADD SLT PUSH2 0x343 JUMPI PUSH1 0x40 MLOAD PUSH32 0x0 PUSH1 0x1 PUSH1 0x1 PUSH1 0xA0 SHL SUB AND DUP2 MSTORE PUSH1 0x20 SWAP1 RETURN JUMPDEST CALLVALUE PUSH2 0x343 JUMPI PUSH1 0x20 CALLDATASIZE PUSH1 0x3 NOT ADD SLT PUSH2 0x343 JUMPI PUSH0 SLOAD PUSH1 0x4 CALLDATALOAD SWAP1 PUSH1 0x1 PUSH1 0x1 PUSH1 0xA0 SHL SUB AND CALLER SUB PUSH2 0x347 JUMPI PUSH1 0x3 SSTORE STOP JUMPDEST CALLVALUE PUSH2 0x343 JUMPI PUSH0 CALLDATASIZE PUSH1 0x3 NOT ADD SLT PUSH2 0x343 JUMPI PUSH1 0x20 PUSH1 0x6 SLOAD PUSH1 0x40 MLOAD SWAP1 DUP2 MSTORE RETURN JUMPDEST CALLVALUE PUSH2 0x343 JUMPI PUSH0 CALLDATASIZE PUSH1 0x3 NOT ADD SLT PUSH2 0x343 JUMPI PUSH1 0x20 PUSH1 0x3 SLOAD PUSH1 0x40 MLOAD SWAP1 DUP2 MSTORE RETURN JUMPDEST SWAP3 SWAP2 SWAP1 PUSH1 0x60 PUSH1 0x20 DUP1 SWAP3 PUSH1 0x40 DUP8 MSTORE DUP1 MLOAD SWAP2 DUP3 SWAP2 DUP3 PUSH1 0x40 DUP11 ADD MSTORE ADD DUP4 DUP9 ADD MCOPY PUSH0 DUP3 DUP3 DUP9 ADD ADD MSTORE PUSH1 0x1F DUP1 NOT SWAP2 ADD AND DUP6 ADD ADD SWAP4 ADD MSTORE JUMP JUMPDEST CALLVALUE PUSH2 0x343 JUMPI PUSH1 0x60 CALLDATASIZE PUSH1 0x3 NOT ADD SLT PUSH2 0x343 JUMPI PUSH1 0x4 CALLDATALOAD PUSH8 0xFFFFFFFFFFFFFFFF DUP2 GT PUSH2 0x343 JUMPI DUP1 PUSH1 0x4 ADD SWAP1 PUSH2 0x120 PUSH1 0x3 NOT DUP3 CALLDATASIZE SUB ADD SLT PUSH2 0x343 JUMPI PUSH32 0x0 PUSH1 0x1 PUSH1 0x1 PUSH1 0xA0 SHL SUB AND CALLER DUP2 SWAP1 SUB PUSH2 0xAF6 JUMPI PUSH1 0x4 SLOAD SWAP1 PUSH1 0xFF DUP3 PUSH1 0x8 SHR AND PUSH2 0xAE7 JUMPI PUSH2 0x7CF PUSH2 0x7C9 PUSH1 0xE4 DUP6 ADD DUP7 PUSH2 0x1201 JUMP JUMPDEST SWAP1 PUSH2 0x1582 JUMP JUMPDEST SWAP1 SWAP4 SWAP8 SWAP3 SWAP6 SWAP2 SWAP5 DUP4 DUP9 DUP9 DUP12 DUP9 DUP11 PUSH1 0x64 DUP6 ADD SWAP9 DUP10 PUSH2 0x804 PUSH2 0x808 PUSH2 0x7FB PUSH2 0x7F5 DUP5 DUP13 PUSH2 0x1201 JUMP JUMPDEST SWAP1 PUSH2 0x167B JUMP JUMPDEST SWAP3 SWAP1 SWAP5 PUSH1 0xFF AND SWAP1 JUMP JUMPDEST ISZERO SWAP1 JUMP JUMPDEST PUSH2 0xA81 JUMPI JUMPDEST POP SWAP4 PUSH2 0x8E2 SWAP10 SWAP9 SWAP7 SWAP4 PUSH2 0x8C7 SWAP4 DUP10 SWAP8 SWAP4 PUSH2 0x845 PUSH2 0x83E PUSH2 0x8D5 SWAP10 PUSH1 0x24 PUSH2 0x835 PUSH2 0x8DD SWAP16 PUSH2 0x1234 JUMP JUMPDEST SWAP11 ADD CALLDATALOAD SWAP12 PUSH2 0x1201 JUMP JUMPDEST CALLDATASIZE SWAP2 PUSH2 0x1241 JUMP JUMPDEST DUP1 MLOAD PUSH1 0x20 SWAP2 DUP3 ADD KECCAK256 PUSH1 0x40 DUP1 MLOAD CHAINID SWAP4 DUP2 ADD SWAP4 DUP5 MSTORE ADDRESS SWAP2 DUP2 ADD SWAP2 SWAP1 SWAP2 MSTORE PUSH1 0x1 PUSH1 0x1 PUSH1 0xA0 SHL SUB SWAP13 DUP14 AND PUSH1 0x60 DUP3 ADD MSTORE SWAP9 DUP13 AND PUSH1 0x80 DUP11 ADD MSTORE PUSH1 0xA0 DUP10 ADD SWAP11 SWAP1 SWAP11 MSTORE PUSH1 0xC0 DUP9 ADD SWAP10 SWAP1 SWAP10 MSTORE SWAP1 SWAP9 AND PUSH1 0xE0 DUP7 ADD MSTORE PUSH2 0x100 DUP6 ADD SWAP8 SWAP1 SWAP8 MSTORE PUSH2 0x120 DUP5 ADD SWAP7 SWAP1 SWAP7 MSTORE PUSH6 0xFFFFFFFFFFFF SWAP6 DUP7 AND PUSH2 0x140 DUP5 ADD MSTORE SWAP1 SWAP5 AND PUSH2 0x160 DUP3 ADD MSTORE SWAP2 SWAP3 DUP3 SWAP1 PUSH2 0x180 DUP3 ADD SWAP1 JUMP JUMPDEST SUB PUSH1 0x1F NOT DUP2 ADD DUP4 MSTORE DUP3 PUSH2 0x11CF JUMP JUMPDEST MLOAD SWAP1 KECCAK256 PUSH2 0x16CC JUMP JUMPDEST PUSH2 0x1711 JUMP JUMPDEST PUSH1 0x1 SLOAD PUSH1 0x1 PUSH1 0x1 PUSH1 0xA0 SHL SUB AND PUSH1 0x1 PUSH1 0x1 PUSH1 0xA0 SHL SUB SWAP1 SWAP2 AND SUB PUSH2 0xA72 JUMPI PUSH2 0x804 PUSH2 0x90E PUSH2 0x914 SWAP3 DUP5 PUSH2 0x1201 JUMP JUMPDEST SWAP1 PUSH2 0x17CC JUMP JUMPDEST SWAP5 DUP6 PUSH2 0x9B1 JUMPI JUMPDEST POP PUSH1 0x60 SWAP5 DUP1 PUSH2 0x9A8 JUMPI JUMPDEST PUSH2 0x960 JUMPI JUMPDEST DUP5 PUSH1 0xA0 DUP8 SWAP1 SHL PUSH6 0xFFFFFFFFFFFF PUSH1 0xA0 SHL AND PUSH1 0xD0 DUP7 SWAP1 SHL PUSH1 0x1 PUSH1 0x1 PUSH1 0xD0 SHL SUB NOT AND OR JUMPDEST SWAP1 PUSH2 0x95C PUSH1 0x40 MLOAD SWAP3 DUP4 SWAP3 DUP4 PUSH2 0x70E JUMP JUMPDEST SUB SWAP1 RETURN JUMPDEST PUSH2 0x94C SWAP5 POP SWAP1 PUSH2 0x8C7 PUSH2 0x975 PUSH2 0x9A0 SWAP4 PUSH2 0x1234 JUMP JUMPDEST PUSH1 0x40 DUP1 MLOAD PUSH1 0x1 PUSH1 0x1 PUSH1 0xA0 SHL SUB SWAP1 SWAP3 AND PUSH1 0x20 DUP4 ADD MSTORE DUP2 ADD SWAP5 SWAP1 SWAP5 MSTORE PUSH1 0x60 DUP5 ADD SWAP2 SWAP1 SWAP2 MSTORE DUP3 SWAP1 PUSH1 0x80 DUP3 ADD SWAP1 JUMP JUMPDEST SWAP2 PUSH0 DUP1 PUSH2 0x92A JUMP JUMPDEST POP DUP3 ISZERO ISZERO PUSH2 0x925 JUMP JUMPDEST PUSH1 0x84 PUSH2 0x9D3 SWAP2 ADD CALLDATALOAD PUSH16 0xFFFFFFFFFFFFFFFFFFFFFFFFFFFFFFFF DUP2 PUSH1 0x80 SHR SWAP2 AND SWAP2 JUMP JUMPDEST POP PUSH1 0xD SLOAD DUP1 DUP3 GT PUSH2 0x9E4 JUMPI POP PUSH2 0x91B JUMP JUMPDEST SWAP1 SWAP2 PUSH32 0x6D334C5133E16CDECF3A42FC5910A5870EB072B741DD1DC494B57667AFCEA6D7 SWAP2 SWAP1 PUSH1 0x1 PUSH1 0x1 PUSH1 0xA0 SHL SUB SWAP1 PUSH2 0xA1B SWAP1 PUSH2 0x1234 JUMP JUMPDEST PUSH1 0x40 DUP1 MLOAD SWAP6 DUP7 MSTORE PUSH1 0x20 DUP7 ADD SWAP4 SWAP1 SWAP4 MSTORE AND SWAP3 LOG2 PUSH1 0x40 MLOAD PUSH3 0x461BCD PUSH1 0xE5 SHL DUP2 MSTORE PUSH1 0x20 PUSH1 0x4 DUP3 ADD MSTORE PUSH1 0x1D PUSH1 0x24 DUP3 ADD MSTORE PUSH32 0x476173206C696D697420657863656564656420666F7220557365724F70000000 PUSH1 0x44 DUP3 ADD MSTORE PUSH1 0x64 SWAP1 REVERT JUMPDEST PUSH4 0x8BAA579F PUSH1 0xE0 SHL PUSH0 MSTORE PUSH1 0x4 PUSH0 REVERT JUMPDEST SWAP7 POP POP SWAP6 POP POP POP POP POP ISZERO PUSH2 0xAD8 JUMPI PUSH1 0x1 PUSH1 0x1 PUSH1 0xA0 SHL SUB DUP2 AND PUSH0 SWAP1 DUP2 MSTORE PUSH1 0x5 PUSH1 0x20 MSTORE PUSH1 0x40 SWAP1 KECCAK256 SLOAD PUSH1 0xFF AND ISZERO PUSH2 0xABD JUMPI DUP9 DUP9 DUP12 DUP9 DUP11 DUP10 SWAP6 DUP10 PUSH0 PUSH2 0x80D JUMP JUMPDEST PUSH4 0xE356C1D3 PUSH1 0xE0 SHL PUSH0 MSTORE PUSH1 0x1 PUSH1 0x1 PUSH1 0xA0 SHL SUB AND PUSH1 0x4 MSTORE PUSH1 0x24 PUSH0 REVERT JUMPDEST PUSH4 0x4BB0C33 PUSH1 0xE1 SHL PUSH0 MSTORE PUSH1 0x4 PUSH0 REVERT JUMPDEST PUSH4 0x13D0FF59 PUSH1 0xE3 SHL PUSH0 MSTORE PUSH1 0x4 PUSH0 REVERT JUMPDEST PUSH4 0x3D40D29D PUSH1 0xE1 SHL PUSH0 MSTORE CALLER PUSH1 0x4 MSTORE PUSH1 0x24 PUSH0 REVERT JUMPDEST CALLVALUE PUSH2 0x343 JUMPI PUSH1 0x20 CALLDATASIZE PUSH1 0x3 NOT ADD SLT PUSH2 0x343 JUMPI PUSH1 0x4 CALLDATALOAD PUSH2 0xB26 DUP2 PUSH2 0x469 JUMP JUMPDEST PUSH0 SLOAD PUSH1 0x1 PUSH1 0x1 PUSH1 0xA0 SHL SUB AND CALLER SUB PUSH2 0x347 JUMPI PUSH1 0x1 PUSH1 0x1 PUSH1 0xA0 SHL SUB AND DUP1 ISZERO PUSH2 0x656 JUMPI PUSH1 0x1 SLOAD DUP2 PUSH1 0x1 PUSH1 0x1 PUSH1 0xA0 SHL SUB DUP3 AND PUSH32 0x243549A92B2412F7A3CAF7A2E56D65B8821B91345363FAA5F57195384065FCC PUSH0 DUP1 LOG3 PUSH1 0x1 PUSH1 0x1 PUSH1 0xA0 SHL SUB NOT AND OR PUSH1 0x1 SSTORE STOP JUMPDEST CALLVALUE PUSH2 0x343 JUMPI PUSH0 CALLDATASIZE PUSH1 0x3 NOT ADD SLT PUSH2 0x343 JUMPI PUSH1 0x20 PUSH1 0xFF PUSH1 0x4 SLOAD PUSH1 0x8 SHR AND PUSH1 0x40 MLOAD SWAP1 ISZERO ISZERO DUP2 MSTORE RETURN JUMPDEST CALLVALUE PUSH2 0x343 JUMPI PUSH0 CALLDATASIZE PUSH1 0x3 NOT ADD SLT PUSH2 0x343 JUMPI PUSH1 0x2 SLOAD PUSH1 0x40 MLOAD PUSH1 0x1 PUSH1 0x1 PUSH1 0xA0 SHL SUB SWAP1 SWAP2 AND DUP2 MSTORE PUSH1 0x20 SWAP1 RETURN JUMPDEST CALLVALUE PUSH2 0x343 JUMPI PUSH0 CALLDATASIZE PUSH1 0x3 NOT ADD SLT PUSH2 0x343 JUMPI PUSH1 0x20 PUSH1 0xB SLOAD PUSH1 0x40 MLOAD SWAP1 DUP2 MSTORE RETURN JUMPDEST CALLVALUE PUSH2 0x343 JUMPI PUSH1 0x20 CALLDATASIZE PUSH1 0x3 NOT ADD SLT PUSH2 0x343 JUMPI PUSH1 0x4 CALLDATALOAD PUSH2 0xC0F DUP2 PUSH2 0x469 JUMP JUMPDEST PUSH1 0x1 DUP1 PUSH1 0xA0 SHL SUB AND PUSH0 MSTORE PUSH1 0x10 PUSH1 0x20 MSTORE PUSH1 0x20 PUSH1 0x40 PUSH0 KECCAK256 SLOAD PUSH1 0x40 MLOAD SWAP1 DUP2 MSTORE RETURN JUMPDEST CALLVALUE PUSH2 0x343 JUMPI PUSH1 0x20 CALLDATASIZE PUSH1 0x3 NOT ADD SLT PUSH2 0x343 JUMPI PUSH0 SLOAD PUSH1 0x4 CALLDATALOAD SWAP1 PUSH1 0x1 PUSH1 0x1 PUSH1 0xA0 SHL SUB AND CALLER SUB PUSH2 0x347 JUMPI PUSH1 0xE SSTORE STOP JUMPDEST CALLVALUE PUSH2 0x343 JUMPI PUSH0 CALLDATASIZE PUSH1 0x3 NOT ADD SLT PUSH2 0x343 JUMPI PUSH1 0x20 PUSH1 0x11 SLOAD PUSH1 0x40 MLOAD SWAP1 DUP2 MSTORE RETURN JUMPDEST CALLVALUE PUSH2 0x343 JUMPI PUSH1 0x80 CALLDATASIZE PUSH1 0x3 NOT ADD SLT PUSH2 0x343 JUMPI PUSH1 0x4 CALLDATALOAD PUSH1 0x3 DUP2 LT ISZERO PUSH2 0x343 JUMPI PUSH1 0x24 CALLDATALOAD PUSH8 0xFFFFFFFFFFFFFFFF DUP2 GT PUSH2 0x343 JUMPI CALLDATASIZE PUSH1 0x23 DUP3 ADD SLT ISZERO PUSH2 0x343 JUMPI DUP1 PUSH1 0x4 ADD CALLDATALOAD SWAP2 PUSH8 0xFFFFFFFFFFFFFFFF DUP4 GT PUSH2 0x343 JUMPI CALLDATASIZE PUSH1 0x24 DUP5 DUP5 ADD ADD GT PUSH2 0x343 JUMPI PUSH2 0x33C SWAP3 PUSH1 0x44 CALLDATALOAD SWAP2 PUSH1 0x24 PUSH1 0x64 CALLDATALOAD SWAP5 ADD SWAP1 PUSH2 0x1287 JUMP JUMPDEST CALLVALUE PUSH2 0x343 JUMPI PUSH0 CALLDATASIZE PUSH1 0x3 NOT ADD SLT PUSH2 0x343 JUMPI PUSH0 SLOAD PUSH1 0x40 MLOAD PUSH1 0x1 PUSH1 0x1 PUSH1 0xA0 SHL SUB SWAP1 SWAP2 AND DUP2 MSTORE PUSH1 0x20 SWAP1 RETURN JUMPDEST CALLVALUE PUSH2 0x343 JUMPI PUSH0 CALLDATASIZE PUSH1 0x3 NOT ADD SLT PUSH2 0x343 JUMPI PUSH1 0x20 PUSH1 0x8 SLOAD PUSH1 0x40 MLOAD SWAP1 DUP2 MSTORE RETURN JUMPDEST CALLVALUE PUSH2 0x343 JUMPI PUSH0 CALLDATASIZE PUSH1 0x3 NOT ADD SLT PUSH2 0x343 JUMPI PUSH1 0x20 PUSH1 0xD SLOAD PUSH1 0x40 MLOAD SWAP1 DUP2 MSTORE RETURN JUMPDEST CALLVALUE PUSH2 0x343 JUMPI PUSH1 0x20 CALLDATASIZE PUSH1 0x3 NOT ADD SLT PUSH2 0x343 JUMPI PUSH0 SLOAD PUSH1 0x4 CALLDATALOAD SWAP1 PUSH1 0x1 PUSH1 0x1 PUSH1 0xA0 SHL SUB AND CALLER SUB PUSH2 0x347 JUMPI PUSH1 0xD SSTORE STOP JUMPDEST CALLVALUE PUSH2 0x343 JUMPI PUSH1 0x20 CALLDATASIZE PUSH1 0x3 NOT ADD SLT PUSH2 0x343 JUMPI PUSH2 0x95C PUSH2 0xD99 PUSH1 0x4 CALLDATALOAD PUSH2 0xD94 DUP2 PUSH2 0x469 JUMP JUMPDEST PUSH2 0x14C2 JUMP JUMPDEST PUSH1 0x40 DUP1 MLOAD SWAP4 DUP5 MSTORE PUSH1 0x20 DUP5 ADD SWAP3 SWAP1 SWAP3 MSTORE SWAP1 DUP3 ADD MSTORE SWAP1 DUP2 SWAP1 PUSH1 0x60 DUP3 ADD SWAP1 JUMP JUMPDEST CALLVALUE PUSH2 0x343 JUMPI PUSH1 0x20 CALLDATASIZE PUSH1 0x3 NOT ADD SLT PUSH2 0x343 JUMPI PUSH1 0x4 CALLDATALOAD PUSH2 0xDD3 DUP2 PUSH2 0x469 JUMP JUMPDEST PUSH1 0x1 DUP1 PUSH1 0xA0 SHL SUB AND PUSH0 MSTORE PUSH1 0x5 PUSH1 0x20 MSTORE PUSH1 0x20 PUSH1 0xFF PUSH1 0x40 PUSH0 KECCAK256 SLOAD AND PUSH1 0x40 MLOAD SWAP1 ISZERO ISZERO DUP2 MSTORE RETURN JUMPDEST CALLVALUE PUSH2 0x343 JUMPI PUSH0 CALLDATASIZE PUSH1 0x3 NOT ADD SLT PUSH2 0x343 JUMPI PUSH1 0x40 MLOAD PUSH32 0x0 PUSH1 0x1 PUSH1 0x1 PUSH1 0xA0 SHL SUB AND DUP2 MSTORE PUSH1 0x20 SWAP1 RETURN JUMPDEST CALLVALUE PUSH2 0x343 JUMPI PUSH0 CALLDATASIZE PUSH1 0x3 NOT ADD SLT PUSH2 0x343 JUMPI PUSH1 0x20 PUSH1 0xC SLOAD PUSH1 0x40 MLOAD SWAP1 DUP2 MSTORE RETURN JUMPDEST CALLVALUE PUSH2 0x343 JUMPI PUSH1 0x40 CALLDATASIZE PUSH1 0x3 NOT ADD SLT PUSH2 0x343 JUMPI PUSH0 SLOAD PUSH1 0x24 CALLDATALOAD SWAP1 PUSH1 0x4 CALLDATALOAD SWAP1 PUSH1 0x1 PUSH1 0x1 PUSH1 0xA0 SHL SUB AND CALLER SUB PUSH2 0x347 JUMPI PUSH1 0x7 SLOAD PUSH1 0x40 DUP1 MLOAD SWAP2 DUP3 MSTORE PUSH1 0x20 DUP3 ADD DUP5 SWAP1 MSTORE PUSH32 0xDB321C9770A010D58B4C320A42B8C5AFE7B2E10AC9DE40FDF7E35A07214F25F4 SWAP2 LOG1 PUSH1 0x6 SSTORE PUSH1 0x7 SSTORE STOP JUMPDEST CALLVALUE PUSH2 0x343 JUMPI PUSH0 PUSH1 0x20 CALLDATASIZE PUSH1 0x3 NOT ADD SLT PUSH2 0x343 JUMPI PUSH1 0x4 CALLDATALOAD PUSH2 0xEDB DUP2 PUSH2 0x469 JUMP JUMPDEST PUSH0 SLOAD PUSH1 0x1 PUSH1 0x1 PUSH1 0xA0 SHL SUB AND CALLER SUB PUSH2 0x347 JUMPI PUSH32 0x0 PUSH1 0x1 PUSH1 0x1 PUSH1 0xA0 SHL SUB AND SWAP1 DUP2 EXTCODESIZE ISZERO PUSH2 0x343 JUMPI PUSH1 0x40 MLOAD PUSH4 0x611D2E75 PUSH1 0xE1 SHL DUP2 MSTORE PUSH1 0x1 PUSH1 0x1 PUSH1 0xA0 SHL SUB SWAP1 SWAP2 AND PUSH1 0x4 DUP3 ADD MSTORE SWAP1 PUSH0 SWAP1 DUP3 SWAP1 PUSH1 0x24 SWAP1 DUP3 SWAP1 DUP5 SWAP1 GAS CALL DUP1 ISZERO PUSH2 0x33E JUMPI PUSH2 0x330 JUMPI POP DUP1 RETURN JUMPDEST CALLVALUE PUSH2 0x343 JUMPI PUSH0 CALLDATASIZE PUSH1 0x3 NOT ADD SLT PUSH2 0x343 JUMPI PUSH1 0x20 PUSH1 0x7 SLOAD PUSH1 0x40 MLOAD SWAP1 DUP2 MSTORE RETURN JUMPDEST CALLVALUE PUSH2 0x343 JUMPI PUSH0 CALLDATASIZE PUSH1 0x3 NOT ADD SLT PUSH2 0x343 JUMPI PUSH1 0x11 SLOAD PUSH1 0xB SLOAD PUSH1 0xC SLOAD PUSH1 0x40 DUP1 MLOAD SWAP4 DUP5 MSTORE PUSH1 0x20 DUP5 ADD SWAP3 SWAP1 SWAP3 MSTORE SWAP1 DUP3 ADD MSTORE PUSH1 0x60 SWAP1 RETURN JUMPDEST CALLVALUE PUSH2 0x343 JUMPI PUSH1 0x20 CALLDATASIZE PUSH1 0x3 NOT ADD SLT PUSH2 0x343 JUMPI PUSH1 0x4 CALLDATALOAD PUSH2 0xFC2 DUP2 PUSH2 0x469 JUMP JUMPDEST PUSH1 0x1 DUP1 PUSH1 0xA0 SHL SUB AND PUSH0 MSTORE PUSH1 0x9 PUSH1 0x20 MSTORE PUSH1 0x20 PUSH1 0x40 PUSH0 KECCAK256 SLOAD PUSH1 0x40 MLOAD SWAP1 DUP2 MSTORE RETURN JUMPDEST PUSH0 PUSH0 PUSH1 0x3 NOT CALLDATASIZE ADD SLT PUSH2 0x343 JUMPI PUSH0 SLOAD PUSH1 0x1 PUSH1 0x1 PUSH1 0xA0 SHL SUB AND CALLER SUB PUSH2 0x347 JUMPI PUSH32 0x0 PUSH1 0x1 PUSH1 0x1 PUSH1 0xA0 SHL SUB AND DUP1 EXTCODESIZE ISZERO PUSH2 0x343 JUMPI PUSH0 PUSH1 0x24 SWAP2 PUSH1 0x40 MLOAD SWAP3 DUP4 DUP1 SWAP3 PUSH4 0xB760FAF9 PUSH1 0xE0 SHL DUP3 MSTORE ADDRESS PUSH1 0x4 DUP4 ADD MSTORE CALLVALUE SWAP1 GAS CALL DUP1 ISZERO PUSH2 0x33E JUMPI PUSH2 0x330 JUMPI POP DUP1 RETURN JUMPDEST CALLVALUE PUSH2 0x343 JUMPI PUSH0 CALLDATASIZE PUSH1 0x3 NOT ADD SLT PUSH2 0x343 JUMPI PUSH1 0x20 PUSH1 0xFF PUSH1 0x4 SLOAD AND PUSH1 0x40 MLOAD SWAP1 ISZERO ISZERO DUP2 MSTORE RETURN JUMPDEST CALLVALUE PUSH2 0x343 JUMPI PUSH0 CALLDATASIZE PUSH1 0x3 NOT ADD SLT PUSH2 0x343 JUMPI PUSH0 SLOAD PUSH1 0x1 PUSH1 0x1 PUSH1 0xA0 SHL SUB AND CALLER SUB PUSH2 0x347 JUMPI TIMESTAMP PUSH1 0xC SSTORE PUSH0 PUSH1 0xB SSTORE STOP JUMPDEST CALLVALUE PUSH2 0x343 JUMPI PUSH0 CALLDATASIZE PUSH1 0x3 NOT ADD SLT PUSH2 0x343 JUMPI PUSH1 0x20 PUSH1 0xE SLOAD PUSH1 0x40 MLOAD SWAP1 DUP2 MSTORE RETURN JUMPDEST CALLVALUE PUSH2 0x343 JUMPI PUSH1 0x20 CALLDATASIZE PUSH1 0x3 NOT ADD SLT PUSH2 0x343 JUMPI PUSH1 0x4 CALLDATALOAD PUSH2 0x10E2 DUP2 PUSH2 0x469 JUMP JUMPDEST PUSH0 SLOAD PUSH1 0x1 PUSH1 0x1 PUSH1 0xA0 SHL SUB AND CALLER SUB PUSH2 0x347 JUMPI PUSH1 0x1 PUSH1 0x1 PUSH1 0xA0 SHL SUB AND DUP1 ISZERO PUSH2 0x656 JUMPI PUSH1 0x2 SLOAD DUP2 PUSH1 0x1 PUSH1 0x1 PUSH1 0xA0 SHL SUB DUP3 AND PUSH32 0x4AB5BE82436D353E61CA18726E984E561F5C1CC7C6D38B29D2553C790434705A PUSH0 DUP1 LOG3 PUSH1 0x1 PUSH1 0x1 PUSH1 0xA0 SHL SUB NOT AND OR PUSH1 0x2 SSTORE STOP JUMPDEST CALLVALUE PUSH2 0x343 JUMPI PUSH1 0x20 CALLDATASIZE PUSH1 0x3 NOT ADD SLT PUSH2 0x343 JUMPI PUSH1 0x4 CALLDATALOAD PUSH2 0x1161 DUP2 PUSH2 0x469 JUMP JUMPDEST PUSH0 SLOAD PUSH1 0x1 PUSH1 0x1 PUSH1 0xA0 SHL SUB DUP2 AND SWAP2 CALLER DUP4 SWAP1 SUB PUSH2 0x347 JUMPI PUSH1 0x1 PUSH1 0x1 PUSH1 0xA0 SHL SUB AND SWAP2 DUP3 ISZERO PUSH2 0x656 JUMPI DUP3 SWAP1 PUSH32 0x8BE0079C531659141344CD1FD0A4F28419497F9722A3DAAFE3B4186F6B6457E0 PUSH0 DUP1 LOG3 PUSH1 0x1 PUSH1 0x1 PUSH1 0xA0 SHL SUB NOT AND OR PUSH0 SSTORE STOP JUMPDEST PUSH4 0x4E487B71 PUSH1 0xE0 SHL PUSH0 MSTORE PUSH1 0x41 PUSH1 0x4 MSTORE PUSH1 0x24 PUSH0 REVERT JUMPDEST SWAP1 PUSH1 0x1F DUP1 NOT SWAP2 ADD AND DUP2 ADD SWAP1 DUP2 LT PUSH8 0xFFFFFFFFFFFFFFFF DUP3 GT OR PUSH2 0x11F1 JUMPI PUSH1 0x40 MSTORE JUMP JUMPDEST PUSH2 0x11BB JUMP JUMPDEST PUSH1 0x40 MLOAD RETURNDATASIZE PUSH0 DUP3 RETURNDATACOPY RETURNDATASIZE SWAP1 REVERT JUMPDEST SWAP1 CALLDATALOAD SWAP1 PUSH1 0x1E NOT DUP2 CALLDATASIZE SUB ADD DUP3 SLT ISZERO PUSH2 0x343 JUMPI ADD DUP1 CALLDATALOAD SWAP1 PUSH8 0xFFFFFFFFFFFFFFFF DUP3 GT PUSH2 0x343 JUMPI PUSH1 0x20 ADD SWAP2 DUP2 CALLDATASIZE SUB DUP4 SGT PUSH2 0x343 JUMPI JUMP JUMPDEST CALLDATALOAD PUSH2 0x123E DUP2 PUSH2 0x469 JUMP JUMPDEST SWAP1 JUMP JUMPDEST SWAP3 SWAP2 SWAP3 PUSH8 0xFFFFFFFFFFFFFFFF DUP3 GT PUSH2 0x11F1 JUMPI PUSH1 0x40 MLOAD SWAP2 PUSH2 0x126B PUSH1 0x1F DUP3 ADD PUSH1 0x1F NOT AND PUSH1 0x20 ADD DUP5 PUSH2 0x11CF JUMP JUMPDEST DUP3 SWAP5 DUP2 DUP5 MSTORE DUP2 DUP4 ADD GT PUSH2 0x343 JUMPI DUP3 DUP2 PUSH1 0x20 SWAP4 DUP5 PUSH0 SWAP7 ADD CALLDATACOPY ADD ADD MSTORE JUMP JUMPDEST SWAP3 SWAP4 POP SWAP1 SWAP2 PUSH32 0x0 PUSH1 0x1 PUSH1 0x1 PUSH1 0xA0 SHL SUB AND CALLER SUB PUSH2 0xAF6 JUMPI DUP3 ISZERO ISZERO SWAP1 DUP2 PUSH2 0x142D JUMPI JUMPDEST POP PUSH2 0x12D0 JUMPI POP POP POP JUMP JUMPDEST PUSH2 0x12DC SWAP2 DUP2 ADD SWAP1 PUSH2 0x145D JUMP JUMPDEST PUSH1 0x1 PUSH1 0x1 PUSH1 0xA0 SHL SUB SWAP1 SWAP3 AND SWAP3 SWAP1 SWAP2 DUP3 ISZERO ISZERO DUP1 PUSH2 0x1424 JUMPI JUMPDEST PUSH2 0x12FE JUMPI JUMPDEST POP POP POP POP JUMP JUMPDEST PUSH2 0x130B PUSH2 0x1314 SWAP2 DUP4 PUSH2 0x1495 JUMP JUMPDEST PUSH3 0xF4240 SWAP1 DIV SWAP1 JUMP JUMPDEST SWAP2 DUP1 DUP4 GT PUSH2 0x141C JUMPI JUMPDEST POP DUP2 PUSH2 0x132A JUMPI JUMPDEST DUP1 PUSH2 0x12F8 JUMP JUMPDEST PUSH1 0x2 SLOAD PUSH1 0x40 MLOAD PUSH4 0x23B872DD PUSH1 0xE0 SHL DUP2 MSTORE PUSH1 0x1 PUSH1 0x1 PUSH1 0xA0 SHL SUB DUP6 DUP2 AND PUSH1 0x4 DUP4 ADD MSTORE SWAP1 SWAP2 AND PUSH1 0x24 DUP3 ADD MSTORE PUSH1 0x44 DUP2 ADD DUP4 SWAP1 MSTORE PUSH1 0x20 DUP2 DUP1 PUSH1 0x64 DUP2 ADD SUB DUP2 PUSH0 PUSH32 0x0 PUSH1 0x1 PUSH1 0x1 PUSH1 0xA0 SHL SUB AND GAS CALL SWAP1 DUP2 ISZERO PUSH2 0x33E JUMPI PUSH0 SWAP2 PUSH2 0x13ED JUMPI JUMPDEST POP ISZERO PUSH2 0x13DE JUMPI PUSH1 0x40 DUP1 MLOAD SWAP3 DUP4 MSTORE PUSH1 0x20 DUP4 ADD SWAP2 SWAP1 SWAP2 MSTORE PUSH32 0x724B869C372E4D7BA16B299ED75D8D16128C7323F1B26350C08AF594A7A0C344 SWAP2 LOG2 PUSH0 DUP1 DUP1 PUSH2 0x1324 JUMP JUMPDEST PUSH4 0x1A3FE571 PUSH1 0xE1 SHL PUSH0 MSTORE PUSH1 0x4 PUSH0 REVERT JUMPDEST PUSH2 0x140F SWAP2 POP PUSH1 0x20 RETURNDATASIZE PUSH1 0x20 GT PUSH2 0x1415 JUMPI JUMPDEST PUSH2 0x1407 DUP2 DUP4 PUSH2 0x11CF JUMP JUMPDEST DUP2 ADD SWAP1 PUSH2 0x14AD JUMP JUMPDEST PUSH0 PUSH2 0x139E JUMP JUMPDEST POP RETURNDATASIZE PUSH2 0x13FD JUMP JUMPDEST SWAP2 POP PUSH0 PUSH2 0x131D JUMP JUMPDEST POP DUP1 ISZERO ISZERO PUSH2 0x12F3 JUMP JUMPDEST SWAP1 POP PUSH2 0x1438 DUP2 PUSH2 0x143F JUMP JUMPDEST ISZERO PUSH0 PUSH2 0x12C6 JUMP JUMPDEST PUSH1 0x3 GT ISZERO PUSH2 0x1449 JUMPI JUMP JUMPDEST PUSH4 0x4E487B71 PUSH1 0xE0 SHL PUSH0 MSTORE PUSH1 0x21 PUSH1 0x4 MSTORE PUSH1 0x24 PUSH0 REVERT JUMPDEST SWAP1 DUP2 PUSH1 0x60 SWAP2 SUB SLT PUSH2 0x343 JUMPI DUP1 CALLDATALOAD PUSH2 0x1473 DUP2 PUSH2 0x469 JUMP JUMPDEST SWAP2 PUSH1 0x40 PUSH1 0x20 DUP4 ADD CALLDATALOAD SWAP3 ADD CALLDATALOAD SWAP1 JUMP JUMPDEST PUSH4 0x4E487B71 PUSH1 0xE0 SHL PUSH0 MSTORE PUSH1 0x11 PUSH1 0x4 MSTORE PUSH1 0x24 PUSH0 REVERT JUMPDEST DUP2 DUP2 MUL SWAP3 SWAP2 DUP2 ISZERO SWAP2 DUP5 DIV EQ OR ISZERO PUSH2 0x14A8 JUMPI JUMP JUMPDEST PUSH2 0x1481 JUMP JUMPDEST SWAP1 DUP2 PUSH1 0x20 SWAP2 SUB SLT PUSH2 0x343 JUMPI MLOAD PUSH2 0x123E DUP2 PUSH2 0x356 JUMP JUMPDEST PUSH1 0x1 PUSH1 0x1 PUSH1 0xA0 SHL SUB AND PUSH0 DUP2 DUP2 MSTORE PUSH1 0x10 PUSH1 0x20 MSTORE PUSH1 0x40 SWAP1 KECCAK256 SLOAD SWAP1 SWAP2 SWAP1 ISZERO PUSH2 0x1520 JUMPI PUSH0 SWAP2 DUP3 MSTORE PUSH1 0xF PUSH1 0x20 SWAP1 DUP2 MSTORE PUSH1 0x40 DUP1 DUP5 KECCAK256 SLOAD PUSH1 0x10 SWAP1 SWAP3 MSTORE SWAP1 SWAP3 KECCAK256 SLOAD SWAP2 SWAP1 DUP3 DUP3 DUP2 ISZERO PUSH2 0x150C JUMPI DIV SWAP2 SWAP3 SWAP2 SWAP1 JUMP JUMPDEST PUSH4 0x4E487B71 PUSH1 0xE0 SHL PUSH0 MSTORE PUSH1 0x12 PUSH1 0x4 MSTORE PUSH1 0x24 PUSH0 REVERT JUMPDEST PUSH0 SWAP2 POP DUP2 SWAP1 DUP2 SWAP1 JUMP JUMPDEST SWAP1 PUSH1 0x4 GT PUSH2 0x343 JUMPI SWAP1 PUSH1 0x4 SWAP1 JUMP JUMPDEST SWAP1 SWAP3 SWAP2 SWAP3 DUP4 PUSH1 0x4 GT PUSH2 0x343 JUMPI DUP4 GT PUSH2 0x343 JUMPI PUSH1 0x4 ADD SWAP2 PUSH1 0x3 NOT ADD SWAP1 JUMP JUMPDEST CALLDATALOAD SWAP1 PUSH6 0xFFFFFFFFFFFF DUP3 AND DUP3 SUB PUSH2 0x343 JUMPI JUMP JUMPDEST SWAP1 DUP1 PUSH1 0x1F DUP4 ADD SLT ISZERO PUSH2 0x343 JUMPI DUP2 PUSH1 0x20 PUSH2 0x123E SWAP4 CALLDATALOAD SWAP2 ADD PUSH2 0x1241 JUMP JUMPDEST SWAP1 PUSH1 0xD4 DUP2 LT PUSH2 0x15FB JUMPI DUP1 PUSH1 0x34 GT PUSH2 0x343 JUMPI DUP2 ADD PUSH1 0xA0 DUP3 DUP3 SUB PUSH1 0x33 NOT ADD SLT PUSH2 0x343 JUMPI PUSH2 0x15AF PUSH1 0x34 DUP4 ADD PUSH2 0x1554 JUMP JUMPDEST SWAP2 PUSH2 0x15BC PUSH1 0x54 DUP3 ADD PUSH2 0x1554 JUMP JUMPDEST SWAP2 PUSH1 0x74 DUP3 ADD CALLDATALOAD SWAP2 PUSH1 0x94 DUP2 ADD CALLDATALOAD SWAP2 PUSH1 0xB4 DUP3 ADD CALLDATALOAD SWAP2 PUSH8 0xFFFFFFFFFFFFFFFF DUP4 GT PUSH2 0x343 JUMPI PUSH2 0x15EB SWAP3 ADD PUSH1 0x34 ADD PUSH2 0x1567 JUMP JUMPDEST SWAP1 SWAP2 SWAP3 SWAP4 SWAP5 PUSH1 0x41 DUP3 MLOAD SUB PUSH2 0x15FB JUMPI JUMP JUMPDEST PUSH4 0x97637E9 PUSH1 0xE2 SHL PUSH0 MSTORE PUSH1 0x4 PUSH0 REVERT JUMPDEST CALLDATALOAD PUSH1 0x1 PUSH1 0x1 PUSH1 0xE0 SHL SUB NOT DUP2 AND SWAP3 SWAP2 SWAP1 PUSH1 0x4 DUP3 LT PUSH2 0x1625 JUMPI POP POP JUMP JUMPDEST PUSH1 0x1 PUSH1 0x1 PUSH1 0xE0 SHL SUB NOT PUSH1 0x4 SWAP3 SWAP1 SWAP3 SUB PUSH1 0x3 SHL DUP3 SWAP1 SHL AND AND SWAP2 POP JUMP JUMPDEST SWAP2 PUSH1 0x60 DUP4 DUP4 SUB SLT PUSH2 0x343 JUMPI DUP3 CALLDATALOAD PUSH2 0x1656 DUP2 PUSH2 0x469 JUMP JUMPDEST SWAP3 PUSH1 0x20 DUP2 ADD CALLDATALOAD SWAP3 PUSH1 0x40 DUP3 ADD CALLDATALOAD PUSH8 0xFFFFFFFFFFFFFFFF DUP2 GT PUSH2 0x343 JUMPI PUSH2 0x123E SWAP3 ADD PUSH2 0x1567 JUMP JUMPDEST PUSH1 0x24 DUP3 LT PUSH2 0x16C4 JUMPI DUP2 PUSH1 0x4 GT PUSH2 0x343 JUMPI DUP1 CALLDATALOAD PUSH1 0x1 PUSH1 0x1 PUSH1 0xE0 SHL SUB NOT AND PUSH4 0x5B0E93FB PUSH1 0xE1 SHL SUB PUSH2 0x16C4 JUMPI PUSH1 0x4 PUSH2 0x16B3 SWAP3 DUP3 ADD SWAP2 ADD PUSH2 0x1640 JUMP JUMPDEST POP POP PUSH1 0x1 PUSH1 0x1 PUSH1 0xA0 SHL SUB AND SWAP1 PUSH1 0x1 SWAP1 JUMP JUMPDEST POP POP PUSH0 SWAP1 PUSH0 SWAP1 JUMP JUMPDEST PUSH1 0x40 MLOAD PUSH1 0x20 DUP2 ADD SWAP2 PUSH32 0x19457468657265756D205369676E6564204D6573736167653A0A333200000000 DUP4 MSTORE PUSH1 0x3C DUP3 ADD MSTORE PUSH1 0x3C DUP2 MSTORE PUSH2 0x170B PUSH1 0x5C DUP3 PUSH2 0x11CF JUMP JUMPDEST MLOAD SWAP1 KECCAK256 SWAP1 JUMP JUMPDEST SWAP1 PUSH1 0x20 DUP2 ADD MLOAD SWAP2 PUSH1 0x60 PUSH1 0x40 DUP4 ADD MLOAD SWAP3 ADD MLOAD PUSH0 BYTE SWAP1 PUSH1 0x1B DUP3 LT PUSH2 0x1798 JUMPI JUMPDEST PUSH1 0xFF DUP3 AND PUSH1 0x1B DUP2 EQ ISZERO SWAP1 DUP2 PUSH2 0x178C JUMPI JUMPDEST POP PUSH2 0x1784 JUMPI PUSH2 0x1771 PUSH0 SWAP4 PUSH1 0x20 SWAP6 PUSH1 0x40 MLOAD SWAP5 DUP6 SWAP5 DUP6 SWAP1 SWAP5 SWAP4 SWAP3 PUSH1 0xFF PUSH1 0x60 SWAP4 PUSH1 0x80 DUP5 ADD SWAP8 DUP5 MSTORE AND PUSH1 0x20 DUP4 ADD MSTORE PUSH1 0x40 DUP3 ADD MSTORE ADD MSTORE JUMP JUMPDEST DUP4 DUP1 MSTORE SUB SWAP1 PUSH1 0x1 GAS STATICCALL ISZERO PUSH2 0x33E JUMPI PUSH0 MLOAD SWAP1 JUMP JUMPDEST POP POP POP POP PUSH0 SWAP1 JUMP JUMPDEST PUSH1 0x1C SWAP2 POP EQ ISZERO PUSH0 PUSH2 0x173E JUMP JUMPDEST SWAP1 PUSH1 0x1B ADD PUSH1 0xFF DUP2 GT PUSH2 0x14A8 JUMPI SWAP1 PUSH2 0x172E JUMP JUMPDEST DUP1 MLOAD PUSH1 0x20 SWAP1 SWAP2 ADD MLOAD PUSH1 0x1 PUSH1 0x1 PUSH1 0xE0 SHL SUB NOT DUP2 AND SWAP3 SWAP2 SWAP1 PUSH1 0x4 DUP3 LT PUSH2 0x1625 JUMPI POP POP JUMP JUMPDEST PUSH1 0x4 DUP3 LT PUSH2 0x188F JUMPI PUSH2 0x17DE DUP3 DUP3 PUSH2 0x1529 JUMP JUMPDEST PUSH4 0x5B0E93FB PUSH1 0xE1 SHL SWAP2 PUSH1 0x1 PUSH1 0x1 PUSH1 0xE0 SHL SUB NOT SWAP2 PUSH2 0x17FA SWAP2 PUSH2 0x160A JUMP JUMPDEST AND SUB PUSH2 0x188F JUMPI DUP2 PUSH2 0x1816 SWAP3 PUSH2 0x180E SWAP3 PUSH2 0x1537 JUMP JUMPDEST DUP2 ADD SWAP1 PUSH2 0x1640 JUMP JUMPDEST SWAP2 PUSH32 0x0 PUSH1 0x1 PUSH1 0x1 PUSH1 0xA0 SHL SUB SWAP1 DUP2 AND SWAP2 AND EQ DUP1 ISZERO SWAP2 POP PUSH2 0x1884 JUMPI JUMPDEST PUSH2 0x187F JUMPI PUSH4 0x95EA7B3 PUSH1 0xE0 SHL PUSH1 0x1 PUSH1 0x1 PUSH1 0xE0 SHL SUB NOT PUSH2 0x186D DUP4 PUSH2 0x17AA JUMP JUMPDEST AND SUB PUSH2 0x187F JUMPI PUSH1 0x30 ADD MLOAD PUSH1 0x60 SHR ADDRESS EQ SWAP1 JUMP JUMPDEST POP PUSH0 SWAP1 JUMP JUMPDEST POP PUSH1 0x4 DUP2 MLOAD LT PUSH2 0x184F JUMP JUMPDEST POP POP PUSH0 SWAP1 JUMP INVALID LOG2 PUSH5 0x6970667358 0x22 SLT KECCAK256 CALL 0xCB 0xAA 0xAD 0xBB PUSH12 0x2326DB7413FD287A9CE6EFCC PUSH4 0x57AB1C85 0xC2 0xE1 0xE9 ISZERO SWAP1 ISZERO CHAINID 0xC0 0x21 PUSH5 0x736F6C6343 STOP ADDMOD SHR STOP CALLER "},"methodIdentifiers":{"addStake(uint32)":"0396cb60","allowAllTargets()":"de992278","circuitBreakerGasThreshold()":"8e2a128c","deposit()":"d0e30db0","entryPoint()":"b0d691fe","gasEstimationVarianceThreshold()":"ef0a5416","getGlobalGasStats()":"c900cd30","getSenderGasStats(address)":"a0febae5","lastResetTimestamp()":"b343a0df","maxGasPerUserOp()":"91222f4b","owner()":"8da5cb5b","paused()":"5c975abb","postOp(uint8,bytes,uint256,uint256)":"7c627b21","postOpOverheadGas()":"4a92dd65","rateLimitMaxGasPerPeriod()":"c61b4b96","rateLimitPeriodSeconds()":"4a433ab2","resetGasUsage()":"e4716967","senderGasUsedThisPeriod(address)":"ceda3487","senderLastActivityTimestamp(address)":"2f027fac","senderOperationCount(address)":"69f4a992","senderTotalGasUsed(address)":"2726a287","setAllowAllTargets(bool)":"18650989","setCircuitBreakerThreshold(uint256)":"1c6aab15","setGasEstimationVarianceThreshold(uint256)":"70817b0e","setMaxGasPerUserOp(uint256)":"99f6f5bb","setPaused(bool)":"16c38b3c","setPostOpOverheadGas(uint256)":"40149439","setRateLimit(uint256,uint256)":"b53f5227","setTargetAllowed(address,bool)":"3a3d56fa","setTreasury(address)":"f0f44260","setVerifier(address)":"5437988d","targetAllowed(address)":"abe2fde4","totalGasUsedThisPeriod()":"659e9542","totalOperationsProcessed()":"79746f9d","transferOwnership(address)":"f2fde38b","treasury()":"61d027b3","usdc()":"3e413bee","validatePaymasterUserOp((address,uint256,bytes,bytes,bytes32,uint256,bytes32,bytes,bytes),bytes32,uint256)":"52b7512c","verifier()":"2b7ac3f3","withdrawStake(address)":"c23a5cea","withdrawTo(address,uint256)":"205c2878"}}}}}