{
  "_format": "hh3-artifact-1",
  "contractName": "Project4Paymaster",
  "sourceName": "contracts/Project4Paymaster.sol",
  "abi": [
    {
      "inputs": [
        {
          "internalType": "address",
          "name": "entryPoint_",
          "type": "address"
        },
        {
          "internalType": "address",
          "name": "usdc_",
          "type": "address"
        },
        {
          "internalType": "address",
          "name": "verifier_",
          "type": "address"
        },
        {
          "internalType": "address",
          "name": "treasury_",
          "type": "address"
        }
      ],
      "stateMutability": "nonpayable",
      "type": "constructor"
    },
    {
      "inputs": [],
      "name": "InvalidPaymasterData",
      "type": "error"
    },
    {
      "inputs": [],
      "name": "InvalidSignature",
      "type": "error"
    },
    {
      "inputs": [
        {
          "internalType": "address",
          "name": "caller",
          "type": "address"
        }
      ],
      "name": "NotEntryPoint",
      "type": "error"
    },
    {
      "inputs": [],
      "name": "NotOwner",
      "type": "error"
    },
    {
      "inputs": [],
      "name": "Paused",
      "type": "error"
    },
    {
      "inputs": [
        {
          "internalType": "address",
          "name": "target",
          "type": "address"
        }
      ],
      "name": "TargetNotAllowed",
      "type": "error"
    },
    {
      "inputs": [],
      "name": "UnsupportedCallPattern",
      "type": "error"
    },
    {
      "inputs": [],
      "name": "UsdcTransferFromFailed",
      "type": "error"
    },
    {
      "inputs": [],
      "name": "ZeroAddress",
      "type": "error"
    },
    {
      "anonymous": false,
      "inputs": [
        {
          "indexed": false,
          "internalType": "bool",
          "name": "allowAll",
          "type": "bool"
        }
      ],
      "name": "AllowAllTargetsUpdated",
      "type": "event"
    },
    {
      "anonymous": false,
      "inputs": [
        {
          "indexed": true,
          "internalType": "address",
          "name": "sender",
          "type": "address"
        },
        {
          "indexed": false,
          "internalType": "uint256",
          "name": "gasUsed",
          "type": "uint256"
        },
        {
          "indexed": false,
          "internalType": "uint256",
          "name": "limit",
          "type": "uint256"
        }
      ],
      "name": "CircuitBreakerTriggered",
      "type": "event"
    },
    {
      "anonymous": false,
      "inputs": [
        {
          "indexed": true,
          "internalType": "address",
          "name": "sender",
          "type": "address"
        },
        {
          "indexed": false,
          "internalType": "uint256",
          "name": "chargedUsdcE6",
          "type": "uint256"
        },
        {
          "indexed": false,
          "internalType": "uint256",
          "name": "chargedWei",
          "type": "uint256"
        }
      ],
      "name": "GasCharged",
      "type": "event"
    },
    {
      "anonymous": false,
      "inputs": [
        {
          "indexed": true,
          "internalType": "address",
          "name": "sender",
          "type": "address"
        },
        {
          "indexed": false,
          "internalType": "uint256",
          "name": "estimatedGas",
          "type": "uint256"
        },
        {
          "indexed": false,
          "internalType": "uint256",
          "name": "actualGas",
          "type": "uint256"
        },
        {
          "indexed": false,
          "internalType": "uint256",
          "name": "variance",
          "type": "uint256"
        }
      ],
      "name": "GasEstimationAlert",
      "type": "event"
    },
    {
      "anonymous": false,
      "inputs": [
        {
          "indexed": true,
          "internalType": "address",
          "name": "sender",
          "type": "address"
        },
        {
          "indexed": false,
          "internalType": "uint256",
          "name": "periodGasUsed",
          "type": "uint256"
        },
        {
          "indexed": false,
          "internalType": "uint256",
          "name": "totalGasUsed",
          "type": "uint256"
        }
      ],
      "name": "GasUsageTracked",
      "type": "event"
    },
    {
      "anonymous": false,
      "inputs": [
        {
          "indexed": true,
          "internalType": "address",
          "name": "sender",
          "type": "address"
        },
        {
          "indexed": false,
          "internalType": "uint256",
          "name": "requestedGas",
          "type": "uint256"
        },
        {
          "indexed": false,
          "internalType": "uint256",
          "name": "maxAllowed",
          "type": "uint256"
        }
      ],
      "name": "MaxGasLimitExceeded",
      "type": "event"
    },
    {
      "anonymous": false,
      "inputs": [
        {
          "indexed": true,
          "internalType": "address",
          "name": "previousOwner",
          "type": "address"
        },
        {
          "indexed": true,
          "internalType": "address",
          "name": "newOwner",
          "type": "address"
        }
      ],
      "name": "OwnershipTransferred",
      "type": "event"
    },
    {
      "anonymous": false,
      "inputs": [
        {
          "indexed": false,
          "internalType": "bool",
          "name": "paused",
          "type": "bool"
        }
      ],
      "name": "PausedUpdated",
      "type": "event"
    },
    {
      "anonymous": false,
      "inputs": [
        {
          "indexed": false,
          "internalType": "uint256",
          "name": "oldLimit",
          "type": "uint256"
        },
        {
          "indexed": false,
          "internalType": "uint256",
          "name": "newLimit",
          "type": "uint256"
        }
      ],
      "name": "RateLimitUpdated",
      "type": "event"
    },
    {
      "anonymous": false,
      "inputs": [
        {
          "indexed": true,
          "internalType": "address",
          "name": "target",
          "type": "address"
        },
        {
          "indexed": false,
          "internalType": "bool",
          "name": "allowed",
          "type": "bool"
        }
      ],
      "name": "TargetAllowedUpdated",
      "type": "event"
    },
    {
      "anonymous": false,
      "inputs": [
        {
          "indexed": true,
          "internalType": "address",
          "name": "oldTreasury",
          "type": "address"
        },
        {
          "indexed": true,
          "internalType": "address",
          "name": "newTreasury",
          "type": "address"
        }
      ],
      "name": "TreasuryUpdated",
      "type": "event"
    },
    {
      "anonymous": false,
      "inputs": [
        {
          "indexed": true,
          "internalType": "address",
          "name": "oldVerifier",
          "type": "address"
        },
        {
          "indexed": true,
          "internalType": "address",
          "name": "newVerifier",
          "type": "address"
        }
      ],
      "name": "VerifierUpdated",
      "type": "event"
    },
    {
      "inputs": [
        {
          "internalType": "uint32",
          "name": "unstakeDelaySec",
          "type": "uint32"
        }
      ],
      "name": "addStake",
      "outputs": [],
      "stateMutability": "payable",
      "type": "function"
    },
    {
      "inputs": [],
      "name": "allowAllTargets",
      "outputs": [
        {
          "internalType": "bool",
          "name": "",
          "type": "bool"
        }
      ],
      "stateMutability": "view",
      "type": "function"
    },
    {
      "inputs": [],
      "name": "circuitBreakerGasThreshold",
      "outputs": [
        {
          "internalType": "uint256",
          "name": "",
          "type": "uint256"
        }
      ],
      "stateMutability": "view",
      "type": "function"
    },
    {
      "inputs": [],
      "name": "deposit",
      "outputs": [],
      "stateMutability": "payable",
      "type": "function"
    },
    {
      "inputs": [],
      "name": "entryPoint",
      "outputs": [
        {
          "internalType": "contract IEntryPointLike",
          "name": "",
          "type": "address"
        }
      ],
      "stateMutability": "view",
      "type": "function"
    },
    {
      "inputs": [],
      "name": "gasEstimationVarianceThreshold",
      "outputs": [
        {
          "internalType": "uint256",
          "name": "",
          "type": "uint256"
        }
      ],
      "stateMutability": "view",
      "type": "function"
    },
    {
      "inputs": [],
      "name": "getGlobalGasStats",
      "outputs": [
        {
          "internalType": "uint256",
          "name": "totalOps",
          "type": "uint256"
        },
        {
          "internalType": "uint256",
          "name": "periodGasUsed",
          "type": "uint256"
        },
        {
          "internalType": "uint256",
          "name": "lastReset",
          "type": "uint256"
        }
      ],
      "stateMutability": "view",
      "type": "function"
    },
    {
      "inputs": [
        {
          "internalType": "address",
          "name": "sender",
          "type": "address"
        }
      ],
      "name": "getSenderGasStats",
      "outputs": [
        {
          "internalType": "uint256",
          "name": "totalGas",
          "type": "uint256"
        },
        {
          "internalType": "uint256",
          "name": "operationCount",
          "type": "uint256"
        },
        {
          "internalType": "uint256",
          "name": "averageGas",
          "type": "uint256"
        }
      ],
      "stateMutability": "view",
      "type": "function"
    },
    {
      "inputs": [],
      "name": "lastResetTimestamp",
      "outputs": [
        {
          "internalType": "uint256",
          "name": "",
          "type": "uint256"
        }
      ],
      "stateMutability": "view",
      "type": "function"
    },
    {
      "inputs": [],
      "name": "maxGasPerUserOp",
      "outputs": [
        {
          "internalType": "uint256",
          "name": "",
          "type": "uint256"
        }
      ],
      "stateMutability": "view",
      "type": "function"
    },
    {
      "inputs": [],
      "name": "owner",
      "outputs": [
        {
          "internalType": "address",
          "name": "",
          "type": "address"
        }
      ],
      "stateMutability": "view",
      "type": "function"
    },
    {
      "inputs": [],
      "name": "paused",
      "outputs": [
        {
          "internalType": "bool",
          "name": "",
          "type": "bool"
        }
      ],
      "stateMutability": "view",
      "type": "function"
    },
    {
      "inputs": [
        {
          "internalType": "enum PostOpMode",
          "name": "mode",
          "type": "uint8"
        },
        {
          "internalType": "bytes",
          "name": "context",
          "type": "bytes"
        },
        {
          "internalType": "uint256",
          "name": "actualGasCost",
          "type": "uint256"
        },
        {
          "internalType": "uint256",
          "name": "actualUserOpFee",
          "type": "uint256"
        }
      ],
      "name": "postOp",
      "outputs": [],
      "stateMutability": "nonpayable",
      "type": "function"
    },
    {
      "inputs": [],
      "name": "postOpOverheadGas",
      "outputs": [
        {
          "internalType": "uint256",
          "name": "",
          "type": "uint256"
        }
      ],
      "stateMutability": "view",
      "type": "function"
    },
    {
      "inputs": [],
      "name": "rateLimitMaxGasPerPeriod",
      "outputs": [
        {
          "internalType": "uint256",
          "name": "",
          "type": "uint256"
        }
      ],
      "stateMutability": "view",
      "type": "function"
    },
    {
      "inputs": [],
      "name": "rateLimitPeriodSeconds",
      "outputs": [
        {
          "internalType": "uint256",
          "name": "",
          "type": "uint256"
        }
      ],
      "stateMutability": "view",
      "type": "function"
    },
    {
      "inputs": [],
      "name": "resetGasUsage",
      "outputs": [],
      "stateMutability": "nonpayable",
      "type": "function"
    },
    {
      "inputs": [
        {
          "internalType": "address",
          "name": "",
          "type": "address"
        }
      ],
      "name": "senderGasUsedThisPeriod",
      "outputs": [
        {
          "internalType": "uint256",
          "name": "",
          "type": "uint256"
        }
      ],
      "stateMutability": "view",
      "type": "function"
    },
    {
      "inputs": [
        {
          "internalType": "address",
          "name": "",
          "type": "address"
        }
      ],
      "name": "senderLastActivityTimestamp",
      "outputs": [
        {
          "internalType": "uint256",
          "name": "",
          "type": "uint256"
        }
      ],
      "stateMutability": "view",
      "type": "function"
    },
    {
      "inputs": [
        {
          "internalType": "address",
          "name": "",
          "type": "address"
        }
      ],
      "name": "senderOperationCount",
      "outputs": [
        {
          "internalType": "uint256",
          "name": "",
          "type": "uint256"
        }
      ],
      "stateMutability": "view",
      "type": "function"
    },
    {
      "inputs": [
        {
          "internalType": "address",
          "name": "",
          "type": "address"
        }
      ],
      "name": "senderTotalGasUsed",
      "outputs": [
        {
          "internalType": "uint256",
          "name": "",
          "type": "uint256"
        }
      ],
      "stateMutability": "view",
      "type": "function"
    },
    {
      "inputs": [
        {
          "internalType": "bool",
          "name": "allowAll",
          "type": "bool"
        }
      ],
      "name": "setAllowAllTargets",
      "outputs": [],
      "stateMutability": "nonpayable",
      "type": "function"
    },
    {
      "inputs": [
        {
          "internalType": "uint256",
          "name": "threshold",
          "type": "uint256"
        }
      ],
      "name": "setCircuitBreakerThreshold",
      "outputs": [],
      "stateMutability": "nonpayable",
      "type": "function"
    },
    {
      "inputs": [
        {
          "internalType": "uint256",
          "name": "thresholdBps",
          "type": "uint256"
        }
      ],
      "name": "setGasEstimationVarianceThreshold",
      "outputs": [],
      "stateMutability": "nonpayable",
      "type": "function"
    },
    {
      "inputs": [
        {
          "internalType": "uint256",
          "name": "maxGas",
          "type": "uint256"
        }
      ],
      "name": "setMaxGasPerUserOp",
      "outputs": [],
      "stateMutability": "nonpayable",
      "type": "function"
    },
    {
      "inputs": [
        {
          "internalType": "bool",
          "name": "_paused",
          "type": "bool"
        }
      ],
      "name": "setPaused",
      "outputs": [],
      "stateMutability": "nonpayable",
      "type": "function"
    },
    {
      "inputs": [
        {
          "internalType": "uint256",
          "name": "newOverheadGas",
          "type": "uint256"
        }
      ],
      "name": "setPostOpOverheadGas",
      "outputs": [],
      "stateMutability": "nonpayable",
      "type": "function"
    },
    {
      "inputs": [
        {
          "internalType": "uint256",
          "name": "periodSeconds",
          "type": "uint256"
        },
        {
          "internalType": "uint256",
          "name": "maxGasPerPeriod",
          "type": "uint256"
        }
      ],
      "name": "setRateLimit",
      "outputs": [],
      "stateMutability": "nonpayable",
      "type": "function"
    },
    {
      "inputs": [
        {
          "internalType": "address",
          "name": "target",
          "type": "address"
        },
        {
          "internalType": "bool",
          "name": "allowed",
          "type": "bool"
        }
      ],
      "name": "setTargetAllowed",
      "outputs": [],
      "stateMutability": "nonpayable",
      "type": "function"
    },
    {
      "inputs": [
        {
          "internalType": "address",
          "name": "newTreasury",
          "type": "address"
        }
      ],
      "name": "setTreasury",
      "outputs": [],
      "stateMutability": "nonpayable",
      "type": "function"
    },
    {
      "inputs": [
        {
          "internalType": "address",
          "name": "newVerifier",
          "type": "address"
        }
      ],
      "name": "setVerifier",
      "outputs": [],
      "stateMutability": "nonpayable",
      "type": "function"
    },
    {
      "inputs": [
        {
          "internalType": "address",
          "name": "",
          "type": "address"
        }
      ],
      "name": "targetAllowed",
      "outputs": [
        {
          "internalType": "bool",
          "name": "",
          "type": "bool"
        }
      ],
      "stateMutability": "view",
      "type": "function"
    },
    {
      "inputs": [],
      "name": "totalGasUsedThisPeriod",
      "outputs": [
        {
          "internalType": "uint256",
          "name": "",
          "type": "uint256"
        }
      ],
      "stateMutability": "view",
      "type": "function"
    },
    {
      "inputs": [],
      "name": "totalOperationsProcessed",
      "outputs": [
        {
          "internalType": "uint256",
          "name": "",
          "type": "uint256"
        }
      ],
      "stateMutability": "view",
      "type": "function"
    },
    {
      "inputs": [
        {
          "internalType": "address",
          "name": "newOwner",
          "type": "address"
        }
      ],
      "name": "transferOwnership",
      "outputs": [],
      "stateMutability": "nonpayable",
      "type": "function"
    },
    {
      "inputs": [],
      "name": "treasury",
      "outputs": [
        {
          "internalType": "address",
          "name": "",
          "type": "address"
        }
      ],
      "stateMutability": "view",
      "type": "function"
    },
    {
      "inputs": [],
      "name": "usdc",
      "outputs": [
        {
          "internalType": "contract IERC20",
          "name": "",
          "type": "address"
        }
      ],
      "stateMutability": "view",
      "type": "function"
    },
    {
      "inputs": [
        {
          "components": [
            {
              "internalType": "address",
              "name": "sender",
              "type": "address"
            },
            {
              "internalType": "uint256",
              "name": "nonce",
              "type": "uint256"
            },
            {
              "internalType": "bytes",
              "name": "initCode",
              "type": "bytes"
            },
            {
              "internalType": "bytes",
              "name": "callData",
              "type": "bytes"
            },
            {
              "internalType": "bytes32",
              "name": "accountGasLimits",
              "type": "bytes32"
            },
            {
              "internalType": "uint256",
              "name": "preVerificationGas",
              "type": "uint256"
            },
            {
              "internalType": "bytes32",
              "name": "gasFees",
              "type": "bytes32"
            },
            {
              "internalType": "bytes",
              "name": "paymasterAndData",
              "type": "bytes"
            },
            {
              "internalType": "bytes",
              "name": "signature",
              "type": "bytes"
            }
          ],
          "internalType": "struct PackedUserOperation",
          "name": "userOp",
          "type": "tuple"
        },
        {
          "internalType": "bytes32",
          "name": "",
          "type": "bytes32"
        },
        {
          "internalType": "uint256",
          "name": "maxCost",
          "type": "uint256"
        }
      ],
      "name": "validatePaymasterUserOp",
      "outputs": [
        {
          "internalType": "bytes",
          "name": "context",
          "type": "bytes"
        },
        {
          "internalType": "uint256",
          "name": "validationData",
          "type": "uint256"
        }
      ],
      "stateMutability": "nonpayable",
      "type": "function"
    },
    {
      "inputs": [],
      "name": "verifier",
      "outputs": [
        {
          "internalType": "address",
          "name": "",
          "type": "address"
        }
      ],
      "stateMutability": "view",
      "type": "function"
    },
    {
      "inputs": [
        {
          "internalType": "address payable",
          "name": "to",
          "type": "address"
        }
      ],
      "name": "withdrawStake",
      "outputs": [],
      "stateMutability": "nonpayable",
      "type": "function"
    },
    {
      "inputs": [
        {
          "internalType": "address payable",
          "name": "to",
          "type": "address"
        },
        {
          "internalType": "uint256",
          "name": "amount",
          "type": "uint256"
        }
      ],
      "name": "withdrawTo",
      "outputs": [],
      "stateMutability": "nonpayable",
      "type": "function"
    }
  ],
  "bytecode": "0x60c0346101de57601f611ad638819003918201601f19168301916001600160401b038311848410176101e2578084926080946040528339810103126101de57610047816101f6565b90610054602082016101f6565b9061006d6060610066604084016101f6565b92016101f6565b5f80546001600160a01b03191633908117825560405195929492917f8be0079c531659141344cd1fd0a4f28419497f9722a3daafe3b4186f6b6457e08180a36001600160a01b0316801580156101cd575b80156101bc575b80156101ab575b61019c5760a0526001600160a01b03908116608052600180549282166001600160a01b0319938416178155600280549490921693909216929092179091556188b86003556004805460ff19169091179055610e10600655633b9aca006007556402540be40060085542600c556302faf080600d55611388600e556118cb908161020b823960805181818161067a015281816113660152611819015260a0518181816102d5015281816104b00152818161077a01528181610e0b01528181610eee01528181610fff015261128e0152f35b63d92e233d60e01b5f5260045ffd5b506001600160a01b038416156100cc565b506001600160a01b038316156100c5565b506001600160a01b038216156100be565b5f80fd5b634e487b7160e01b5f52604160045260245ffd5b51906001600160a01b03821682036101de5756fe60806040526004361015610011575f80fd5b5f3560e01c80630396cb60146102a457806316c38b3c1461029f578063186509891461029a5780631c6aab1514610295578063205c2878146102905780632726a2871461028b5780632b7ac3f3146102865780632f027fac146102815780633a3d56fa1461027c5780633e413bee1461027757806340149439146102725780634a433ab21461026d5780634a92dd651461026857806352b7512c146102635780635437988d1461025e5780635c975abb1461025957806361d027b314610254578063659e95421461024f57806369f4a9921461024a57806370817b0e1461024557806379746f9d146102405780637c627b211461023b5780638da5cb5b146102365780638e2a128c1461023157806391222f4b1461022c57806399f6f5bb14610227578063a0febae514610222578063abe2fde41461021d578063b0d691fe14610218578063b343a0df14610213578063b53f52271461020e578063c23a5cea14610209578063c61b4b9614610204578063c900cd30146101ff578063ceda3487146101fa578063d0e30db0146101f5578063de992278146101f0578063e4716967146101eb578063ef0a5416146101e6578063f0f44260146101e15763f2fde38b146101dc575f80fd5b611144565b6110c5565b6110a8565b61107d565b61105b565b610fe0565b610fa5565b610f74565b610f57565b610ebd565b610e57565b610e3a565b610df6565b610db6565b610d71565b610d46565b610d29565b610d0c565b610ce5565b610c75565b610c58565b610c2d565b610bf2565b610bd5565b610bad565b610b88565b610b09565b610741565b6106f1565b6106d4565b6106a9565b610665565b6105bc565b610581565b610559565b61051e565b61047a565b61043e565b6103d2565b610360565b5f60203660031901126103435760043563ffffffff8116809103610343575f546001600160a01b03163303610347577f00000000000000000000000000000000000000000000000000000000000000006001600160a01b031690813b15610343575f90602460405180948193621cb65b60e51b8352600483015234905af1801561033e57610330575080f35b61033c91505f906111cf565b005b6111f6565b5f80fd5b6330cd747160e01b5f5260045ffd5b8015150361034357565b346103435760203660031901126103435760043561037d81610356565b5f546001600160a01b031633036103475760207f31311016d7204faff81880133e3db244ae8a8b9ce15e83e2432258226d15f94291151560045461ff008260081b169061ff00191617600455604051908152a1005b34610343576020366003190112610343576004356103ef81610356565b5f546001600160a01b031633036103475760207f49e16b4e00d591ed4925dea4fdd69f9e112aabb2baea37669dcc78600b2b7b0891151560ff196004541660ff821617600455604051908152a1005b34610343576020366003190112610343575f54600435906001600160a01b0316330361034757600855005b6001600160a01b0381160361034357565b34610343575f60403660031901126103435760043561049881610469565b5f5460243591906001600160a01b03163303610347577f00000000000000000000000000000000000000000000000000000000000000006001600160a01b031691823b156103435760405163040b850f60e31b81526001600160a01b0390921660048301526024820152905f908290604490829084905af1801561033e57610330575080f35b346103435760203660031901126103435760043561053b81610469565b60018060a01b03165f52600f602052602060405f2054604051908152f35b34610343575f366003190112610343576001546040516001600160a01b039091168152602090f35b346103435760203660031901126103435760043561059e81610469565b60018060a01b03165f52600a602052602060405f2054604051908152f35b34610343576040366003190112610343576004356105d981610469565b602435906105e682610356565b5f546001600160a01b03163303610347576001600160a01b03169081156106565760207fd10c23909502730c000220a119364e467e571e5d06984343f90be1562ef91c8791835f526005825261064b8160405f209060ff801983541691151516179055565b6040519015158152a2005b63d92e233d60e01b5f5260045ffd5b34610343575f366003190112610343576040517f00000000000000000000000000000000000000000000000000000000000000006001600160a01b03168152602090f35b34610343576020366003190112610343575f54600435906001600160a01b0316330361034757600355005b34610343575f366003190112610343576020600654604051908152f35b34610343575f366003190112610343576020600354604051908152f35b9291906060602080926040875280519182918260408a0152018388015e5f828288010152601f8019910116850101930152565b346103435760603660031901126103435760043567ffffffffffffffff81116103435780600401906101206003198236030112610343577f00000000000000000000000000000000000000000000000000000000000000006001600160a01b031633819003610af6576004549060ff8260081c16610ae7576107cf6107c960e4850186611201565b90611582565b909397929591948388888b888a6064850198896108046108086107fb6107f5848c611201565b9061167b565b92909460ff1690565b1590565b610a81575b50936108e2999896936108c79389979361084561083e6108d59960246108356108dd9f611234565b9a01359b611201565b3691611241565b8051602091820120604080514693810193845230918101919091526001600160a01b039c8d166060820152988c1660808a015260a089019a909a5260c088019990995290981660e086015261010085019790975261012084019690965265ffffffffffff95861661014084015290941661016082015291928290610180820190565b03601f1981018352826111cf565b5190206116cc565b611711565b6001546001600160a01b03166001600160a01b0390911603610a725761080461090e6109149284611201565b906117cc565b94856109b1575b50606094806109a8575b610960575b8460a087901b65ffffffffffff60a01b1660d086901b6001600160d01b031916175b9061095c6040519283928361070e565b0390f35b61094c9450906108c76109756109a093611234565b604080516001600160a01b039092166020830152810194909452606084019190915282906080820190565b915f8061092a565b50821515610925565b60846109d39101356fffffffffffffffffffffffffffffffff8160801c911691565b50600d548082116109e4575061091b565b90917f6d334c5133e16cdecf3a42fc5910a5870eb072b741dd1dc494b57667afcea6d791906001600160a01b0390610a1b90611234565b6040805195865260208601939093521692a260405162461bcd60e51b815260206004820152601d60248201527f476173206c696d697420657863656564656420666f7220557365724f700000006044820152606490fd5b638baa579f60e01b5f5260045ffd5b96505095505050505015610ad8576001600160a01b0381165f9081526005602052604090205460ff1615610abd5788888b888a8995895f61080d565b63e356c1d360e01b5f526001600160a01b031660045260245ffd5b6304bb0c3360e11b5f5260045ffd5b6313d0ff5960e31b5f5260045ffd5b633d40d29d60e11b5f523360045260245ffd5b3461034357602036600319011261034357600435610b2681610469565b5f546001600160a01b03163303610347576001600160a01b0316801561065657600154816001600160a01b0382167f0243549a92b2412f7a3caf7a2e56d65b8821b91345363faa5f57195384065fcc5f80a36001600160a01b03191617600155005b34610343575f36600319011261034357602060ff60045460081c166040519015158152f35b34610343575f366003190112610343576002546040516001600160a01b039091168152602090f35b34610343575f366003190112610343576020600b54604051908152f35b3461034357602036600319011261034357600435610c0f81610469565b60018060a01b03165f526010602052602060405f2054604051908152f35b34610343576020366003190112610343575f54600435906001600160a01b0316330361034757600e55005b34610343575f366003190112610343576020601154604051908152f35b346103435760803660031901126103435760043560038110156103435760243567ffffffffffffffff811161034357366023820112156103435780600401359167ffffffffffffffff83116103435736602484840101116103435761033c92604435916024606435940190611287565b34610343575f366003190112610343575f546040516001600160a01b039091168152602090f35b34610343575f366003190112610343576020600854604051908152f35b34610343575f366003190112610343576020600d54604051908152f35b34610343576020366003190112610343575f54600435906001600160a01b0316330361034757600d55005b346103435760203660031901126103435761095c610d99600435610d9481610469565b6114c2565b604080519384526020840192909252908201529081906060820190565b3461034357602036600319011261034357600435610dd381610469565b60018060a01b03165f526005602052602060ff60405f2054166040519015158152f35b34610343575f366003190112610343576040517f00000000000000000000000000000000000000000000000000000000000000006001600160a01b03168152602090f35b34610343575f366003190112610343576020600c54604051908152f35b34610343576040366003190112610343575f5460243590600435906001600160a01b031633036103475760075460408051918252602082018490527fdb321c9770a010d58b4c320a42b8c5afe7b2e10ac9de40fdf7e35a07214f25f491a1600655600755005b34610343575f602036600319011261034357600435610edb81610469565b5f546001600160a01b03163303610347577f00000000000000000000000000000000000000000000000000000000000000006001600160a01b031690813b156103435760405163611d2e7560e11b81526001600160a01b039091166004820152905f908290602490829084905af1801561033e57610330575080f35b34610343575f366003190112610343576020600754604051908152f35b34610343575f36600319011261034357601154600b54600c5460408051938452602084019290925290820152606090f35b3461034357602036600319011261034357600435610fc281610469565b60018060a01b03165f526009602052602060405f2054604051908152f35b5f5f600319360112610343575f546001600160a01b03163303610347577f00000000000000000000000000000000000000000000000000000000000000006001600160a01b0316803b15610343575f6024916040519283809263b760faf960e01b825230600483015234905af1801561033e57610330575080f35b34610343575f36600319011261034357602060ff600454166040519015158152f35b34610343575f366003190112610343575f546001600160a01b031633036103475742600c555f600b55005b34610343575f366003190112610343576020600e54604051908152f35b34610343576020366003190112610343576004356110e281610469565b5f546001600160a01b03163303610347576001600160a01b0316801561065657600254816001600160a01b0382167f4ab5be82436d353e61ca18726e984e561f5c1cc7c6d38b29d2553c790434705a5f80a36001600160a01b03191617600255005b346103435760203660031901126103435760043561116181610469565b5f546001600160a01b0381169133839003610347576001600160a01b03169182156106565782907f8be0079c531659141344cd1fd0a4f28419497f9722a3daafe3b4186f6b6457e05f80a36001600160a01b031916175f55005b634e487b7160e01b5f52604160045260245ffd5b90601f8019910116810190811067ffffffffffffffff8211176111f157604052565b6111bb565b6040513d5f823e3d90fd5b903590601e1981360301821215610343570180359067ffffffffffffffff82116103435760200191813603831361034357565b3561123e81610469565b90565b92919267ffffffffffffffff82116111f1576040519161126b601f8201601f1916602001846111cf565b829481845281830111610343578281602093845f960137010152565b92935090917f00000000000000000000000000000000000000000000000000000000000000006001600160a01b03163303610af657821515908161142d575b506112d057505050565b6112dc9181019061145d565b6001600160a01b0390921692909182151580611424575b6112fe575b50505050565b61130b6113149183611495565b620f4240900490565b9180831161141c575b508161132a575b806112f8565b6002546040516323b872dd60e01b81526001600160a01b038581166004830152909116602482015260448101839052602081806064810103815f7f00000000000000000000000000000000000000000000000000000000000000006001600160a01b03165af190811561033e575f916113ed575b50156113de576040805192835260208301919091527f724b869c372e4d7ba16b299ed75d8d16128c7323f1b26350c08af594a7a0c34491a25f8080611324565b631a3fe57160e11b5f5260045ffd5b61140f915060203d602011611415575b61140781836111cf565b8101906114ad565b5f61139e565b503d6113fd565b91505f61131d565b508015156112f3565b90506114388161143f565b155f6112c6565b6003111561144957565b634e487b7160e01b5f52602160045260245ffd5b9081606091031261034357803561147381610469565b916040602083013592013590565b634e487b7160e01b5f52601160045260245ffd5b818102929181159184041417156114a857565b611481565b90816020910312610343575161123e81610356565b6001600160a01b03165f8181526010602052604090205490919015611520575f918252600f602090815260408084205460109092529092205491908282811561150c570491929190565b634e487b7160e01b5f52601260045260245ffd5b5f915081908190565b906004116103435790600490565b909291928360041161034357831161034357600401916003190190565b359065ffffffffffff8216820361034357565b9080601f830112156103435781602061123e93359101611241565b9060d481106115fb578060341161034357810160a08282036033190112610343576115af60348301611554565b916115bc60548201611554565b9160748201359160948101359160b48201359167ffffffffffffffff8311610343576115eb9201603401611567565b909192939460418251036115fb57565b63097637e960e21b5f5260045ffd5b356001600160e01b0319811692919060048210611625575050565b6001600160e01b031960049290920360031b82901b16169150565b9160608383031261034357823561165681610469565b92602081013592604082013567ffffffffffffffff81116103435761123e9201611567565b602482106116c457816004116103435780356001600160e01b031916635b0e93fb60e11b036116c45760046116b39282019101611640565b50506001600160a01b031690600190565b50505f905f90565b60405160208101917f19457468657265756d205369676e6564204d6573736167653a0a3332000000008352603c820152603c815261170b605c826111cf565b51902090565b90602081015191606060408301519201515f1a90601b8210611798575b60ff8216601b811415908161178c575b50611784576117715f93602095604051948594859094939260ff6060936080840197845216602083015260408201520152565b838052039060015afa1561033e575f5190565b505050505f90565b601c915014155f61173e565b90601b0160ff81116114a8579061172e565b80516020909101516001600160e01b0319811692919060048210611625575050565b6004821061188f576117de8282611529565b635b0e93fb60e11b916001600160e01b0319916117fa9161160a565b160361188f57816118169261180e92611537565b810190611640565b917f00000000000000000000000000000000000000000000000000000000000000006001600160a01b0390811691161480159150611884575b61187f5763095ea7b360e01b6001600160e01b031961186d836117aa565b160361187f576030015160601c301490565b505f90565b50600481511061184f565b50505f9056fea2646970667358221220f1cbaaadbb6b2326db7413fd287a9ce6efcc6357ab1c85c2e1e915901546c02164736f6c634300081c0033",
  "linkReferences": {},
  "deployedLinkReferences": {},
  "immutableReferences": {
    "149": [
      {
        "length": 32,
        "start": 1658
      },
      {
        "length": 32,
        "start": 4966
      },
      {
        "length": 32,
        "start": 6169
      }
    ],
    "152": [
      {
        "length": 32,
        "start": 725
      },
      {
        "length": 32,
        "start": 1200
      },
      {
        "length": 32,
        "start": 1914
      },
      {
        "length": 32,
        "start": 3595
      },
      {
        "length": 32,
        "start": 3822
      },
      {
        "length": 32,
        "start": 4095
      },
      {
        "length": 32,
        "start": 4750
      }
    ]
  },
  "inputSourceName": "project/contracts/Project4Paymaster.sol",
  "buildInfoId": "solc-0_8_28-73db1da7be481ff9f5c612283d0bdd5dd4916cf8"
}